{
    "_format": "hh-sol-artifact-1",
    "contractName": "NFTMinter",
    "sourceName": "contracts/NFTMinter.sol",
    "abi": [
        {
            "inputs": [],
            "stateMutability": "nonpayable",
            "type": "constructor"
        },
        {
            "anonymous": false,
            "inputs": [
                {
                    "indexed": true,
                    "internalType": "address",
                    "name": "owner",
                    "type": "address"
                },
                {
                    "indexed": true,
                    "internalType": "address",
                    "name": "approved",
                    "type": "address"
                },
                {
                    "indexed": true,
                    "internalType": "uint256",
                    "name": "tokenId",
                    "type": "uint256"
                }
            ],
            "name": "Approval",
            "type": "event"
        },
        {
            "anonymous": false,
            "inputs": [
                {
                    "indexed": true,
                    "internalType": "address",
                    "name": "owner",
                    "type": "address"
                },
                {
                    "indexed": true,
                    "internalType": "address",
                    "name": "operator",
                    "type": "address"
                },
                {
                    "indexed": false,
                    "internalType": "bool",
                    "name": "approved",
                    "type": "bool"
                }
            ],
            "name": "ApprovalForAll",
            "type": "event"
        },
        {
            "anonymous": false,
            "inputs": [
                {
                    "indexed": true,
                    "internalType": "address",
                    "name": "from",
                    "type": "address"
                },
                {
                    "indexed": true,
                    "internalType": "address",
                    "name": "to",
                    "type": "address"
                },
                {
                    "indexed": true,
                    "internalType": "uint256",
                    "name": "tokenId",
                    "type": "uint256"
                }
            ],
            "name": "Transfer",
            "type": "event"
        },
        {
            "inputs": [
                {
                    "internalType": "address",
                    "name": "to",
                    "type": "address"
                },
                {
                    "internalType": "uint256",
                    "name": "tokenId",
                    "type": "uint256"
                }
            ],
            "name": "approve",
            "outputs": [],
            "stateMutability": "nonpayable",
            "type": "function"
        },
        {
            "inputs": [
                {
                    "internalType": "address",
                    "name": "owner",
                    "type": "address"
                }
            ],
            "name": "balanceOf",
            "outputs": [
                {
                    "internalType": "uint256",
                    "name": "",
                    "type": "uint256"
                }
            ],
            "stateMutability": "view",
            "type": "function"
        },
        {
            "inputs": [
                {
                    "internalType": "uint256",
                    "name": "tokenId",
                    "type": "uint256"
                }
            ],
            "name": "getApproved",
            "outputs": [
                {
                    "internalType": "address",
                    "name": "",
                    "type": "address"
                }
            ],
            "stateMutability": "view",
            "type": "function"
        },
        {
            "inputs": [
                {
                    "internalType": "address",
                    "name": "owner",
                    "type": "address"
                },
                {
                    "internalType": "address",
                    "name": "operator",
                    "type": "address"
                }
            ],
            "name": "isApprovedForAll",
            "outputs": [
                {
                    "internalType": "bool",
                    "name": "",
                    "type": "bool"
                }
            ],
            "stateMutability": "view",
            "type": "function"
        },
        {
            "inputs": [],
            "name": "makeDGNFT",
            "outputs": [],
            "stateMutability": "nonpayable",
            "type": "function"
        },
        {
            "inputs": [],
            "name": "name",
            "outputs": [
                {
                    "internalType": "string",
                    "name": "",
                    "type": "string"
                }
            ],
            "stateMutability": "view",
            "type": "function"
        },
        {
            "inputs": [
                {
                    "internalType": "uint256",
                    "name": "tokenId",
                    "type": "uint256"
                }
            ],
            "name": "ownerOf",
            "outputs": [
                {
                    "internalType": "address",
                    "name": "",
                    "type": "address"
                }
            ],
            "stateMutability": "view",
            "type": "function"
        },
        {
            "inputs": [
                {
                    "internalType": "uint256",
                    "name": "tokenId",
                    "type": "uint256"
                }
            ],
            "name": "randomColour",
            "outputs": [
                {
                    "internalType": "string",
                    "name": "",
                    "type": "string"
                }
            ],
            "stateMutability": "view",
            "type": "function"
        },
        {
            "inputs": [
                {
                    "internalType": "uint256",
                    "name": "tokenId",
                    "type": "uint256"
                }
            ],
            "name": "randomName",
            "outputs": [
                {
                    "internalType": "string",
                    "name": "",
                    "type": "string"
                }
            ],
            "stateMutability": "view",
            "type": "function"
        },
        {
            "inputs": [
                {
                    "internalType": "address",
                    "name": "from",
                    "type": "address"
                },
                {
                    "internalType": "address",
                    "name": "to",
                    "type": "address"
                },
                {
                    "internalType": "uint256",
                    "name": "tokenId",
                    "type": "uint256"
                }
            ],
            "name": "safeTransferFrom",
            "outputs": [],
            "stateMutability": "nonpayable",
            "type": "function"
        },
        {
            "inputs": [
                {
                    "internalType": "address",
                    "name": "from",
                    "type": "address"
                },
                {
                    "internalType": "address",
                    "name": "to",
                    "type": "address"
                },
                {
                    "internalType": "uint256",
                    "name": "tokenId",
                    "type": "uint256"
                },
                {
                    "internalType": "bytes",
                    "name": "_data",
                    "type": "bytes"
                }
            ],
            "name": "safeTransferFrom",
            "outputs": [],
            "stateMutability": "nonpayable",
            "type": "function"
        },
        {
            "inputs": [
                {
                    "internalType": "address",
                    "name": "operator",
                    "type": "address"
                },
                {
                    "internalType": "bool",
                    "name": "approved",
                    "type": "bool"
                }
            ],
            "name": "setApprovalForAll",
            "outputs": [],
            "stateMutability": "nonpayable",
            "type": "function"
        },
        {
            "inputs": [
                {
                    "internalType": "bytes4",
                    "name": "interfaceId",
                    "type": "bytes4"
                }
            ],
            "name": "supportsInterface",
            "outputs": [
                {
                    "internalType": "bool",
                    "name": "",
                    "type": "bool"
                }
            ],
            "stateMutability": "view",
            "type": "function"
        },
        {
            "inputs": [],
            "name": "symbol",
            "outputs": [
                {
                    "internalType": "string",
                    "name": "",
                    "type": "string"
                }
            ],
            "stateMutability": "view",
            "type": "function"
        },
        {
            "inputs": [
                {
                    "internalType": "uint256",
                    "name": "tokenId",
                    "type": "uint256"
                }
            ],
            "name": "tokenURI",
            "outputs": [
                {
                    "internalType": "string",
                    "name": "",
                    "type": "string"
                }
            ],
            "stateMutability": "view",
            "type": "function"
        },
        {
            "inputs": [
                {
                    "internalType": "address",
                    "name": "from",
                    "type": "address"
                },
                {
                    "internalType": "address",
                    "name": "to",
                    "type": "address"
                },
                {
                    "internalType": "uint256",
                    "name": "tokenId",
                    "type": "uint256"
                }
            ],
            "name": "transferFrom",
            "outputs": [],
            "stateMutability": "nonpayable",
            "type": "function"
        }
    ],
    "bytecode": "0x608060405260405180610100016040528060d38152602001620043c560d39139600890805190602001906200003692919062000977565b506040518060800160405280605f815260200162004498605f9139600990805190602001906200006892919062000977565b506040518061020001604052806040518060400160405280600681526020017f416c66726564000000000000000000000000000000000000000000000000000081525081526020016040518060400160405280600881526020017f4265727472616e6400000000000000000000000000000000000000000000000081525081526020016040518060400160405280600781526020017f436861726c65730000000000000000000000000000000000000000000000000081525081526020016040518060400160405280600681526020017f44656e6e6973000000000000000000000000000000000000000000000000000081525081526020016040518060400160405280600681526020017f457567656e65000000000000000000000000000000000000000000000000000081525081526020016040518060400160405280600981526020017f467269656472696368000000000000000000000000000000000000000000000081525081526020016040518060400160405280600681526020017f47656f726765000000000000000000000000000000000000000000000000000081525081526020016040518060400160405280600481526020017f48616e730000000000000000000000000000000000000000000000000000000081525081526020016040518060400160405280600481526020017f4976616e0000000000000000000000000000000000000000000000000000000081525081526020016040518060400160405280600681526020017f4a756c697573000000000000000000000000000000000000000000000000000081525081526020016040518060400160405280600581526020017f4b6c61757300000000000000000000000000000000000000000000000000000081525081526020016040518060400160405280600681526020017f4c7564776967000000000000000000000000000000000000000000000000000081525081526020016040518060400160405280600781526020017f4d616e667265640000000000000000000000000000000000000000000000000081525081526020016040518060400160405280600481526020017f4e696c730000000000000000000000000000000000000000000000000000000081525081526020016040518060400160405280600481526020017f4f74746f0000000000000000000000000000000000000000000000000000000081525081526020016040518060400160405280600481526020017f5061756c00000000000000000000000000000000000000000000000000000000815250815250600a9060106200043592919062000a08565b50604051806101e001604052806040518060400160405280600781526020017f6372696d736f6e0000000000000000000000000000000000000000000000000081525081526020016040518060400160405280600d81526020017f6461726b736c617465626c75650000000000000000000000000000000000000081525081526020016040518060400160405280600981526020017f6461726b677265656e000000000000000000000000000000000000000000000081525081526020016040518060400160405280600981526020017f6275726c79776f6f64000000000000000000000000000000000000000000000081525081526020016040518060400160405280600581526020017f636f72616c00000000000000000000000000000000000000000000000000000081525081526020016040518060400160405280600c81526020017f6d69646e69676874626c7565000000000000000000000000000000000000000081525081526020016040518060400160405280600f81526020017f6d656469756d76696f6c6574726564000000000000000000000000000000000081525081526020016040518060400160405280600981526020017f6c69676874626c7565000000000000000000000000000000000000000000000081525081526020016040518060400160405280600881526020017f736561677265656e00000000000000000000000000000000000000000000000081525081526020016040518060400160405280600981526020017f737465656c626c7565000000000000000000000000000000000000000000000081525081526020016040518060400160405280601081526020017f6d656469756d617175616d6172696e650000000000000000000000000000000081525081526020016040518060400160405280600481526020017f706c756d0000000000000000000000000000000000000000000000000000000081525081526020016040518060400160405280600681526020017f7369656e6e61000000000000000000000000000000000000000000000000000081525081526020016040518060400160405280600981526020017f6c696d65677265656e000000000000000000000000000000000000000000000081525081526020016040518060400160405280600681526020017f6f72636869640000000000000000000000000000000000000000000000000000815250815250600b90600f620007c792919062000a6f565b50348015620007d557600080fd5b506040518060400160405280600981526020017f446f7065476f61747300000000000000000000000000000000000000000000008152506040518060400160405280600481526020017f445047540000000000000000000000000000000000000000000000000000000081525081600090805190602001906200085a92919062000977565b5080600190805190602001906200087392919062000977565b505050620008a5604051806060016040528060288152602001620044f760289139620008ab60201b62000e771760201c565b62000c90565b6200094b81604051602401620008c2919062000ba4565b6040516020818303038152906040527f41304fac000000000000000000000000000000000000000000000000000000007bffffffffffffffffffffffffffffffffffffffffffffffffffffffff19166020820180517bffffffffffffffffffffffffffffffffffffffffffffffffffffffff83818316178352505050506200094e60201b60201c565b50565b60008151905060006a636f6e736f6c652e6c6f679050602083016000808483855afa5050505050565b828054620009859062000c1a565b90600052602060002090601f016020900481019282620009a95760008555620009f5565b82601f10620009c457805160ff1916838001178555620009f5565b82800160010185558215620009f5579182015b82811115620009f4578251825591602001919060010190620009d7565b5b50905062000a04919062000ad6565b5090565b82805482825590600052602060002090810192821562000a5c579160200282015b8281111562000a5b57825182908051906020019062000a4a92919062000977565b509160200191906001019062000a29565b5b50905062000a6b919062000af5565b5090565b82805482825590600052602060002090810192821562000ac3579160200282015b8281111562000ac257825182908051906020019062000ab192919062000977565b509160200191906001019062000a90565b5b50905062000ad2919062000af5565b5090565b5b8082111562000af157600081600090555060010162000ad7565b5090565b5b8082111562000b19576000818162000b0f919062000b1d565b5060010162000af6565b5090565b50805462000b2b9062000c1a565b6000825580601f1062000b3f575062000b60565b601f01602090049060005260206000209081019062000b5f919062000ad6565b5b50565b600062000b708262000bc8565b62000b7c818562000bd3565b935062000b8e81856020860162000be4565b62000b998162000c7f565b840191505092915050565b6000602082019050818103600083015262000bc0818462000b63565b905092915050565b600081519050919050565b600082825260208201905092915050565b60005b8381101562000c0457808201518184015260208101905062000be7565b8381111562000c14576000848401525b50505050565b6000600282049050600182168062000c3357607f821691505b6020821081141562000c4a5762000c4962000c50565b5b50919050565b7f4e487b7100000000000000000000000000000000000000000000000000000000600052602260045260246000fd5b6000601f19601f8301169050919050565b6137258062000ca06000396000f3fe608060405234801561001057600080fd5b50600436106101005760003560e01c806370a0823111610097578063b88d4fde11610066578063b88d4fde146102d1578063c87b56dd146102ed578063e985e9c51461031d578063fe74d8061461034d57610100565b806370a08231146102375780637ae647561461026757806395d89b4114610297578063a22cb465146102b557610100565b806323b872dd116100d357806323b872dd1461019f57806342842e0e146101bb5780634ebd91ab146101d75780636352211e1461020757610100565b806301ffc9a71461010557806306fdde0314610135578063081812fc14610153578063095ea7b314610183575b600080fd5b61011f600480360381019061011a91906122a3565b610357565b60405161012c9190612963565b60405180910390f35b61013d610439565b60405161014a919061297e565b60405180910390f35b61016d600480360381019061016891906122f5565b6104cb565b60405161017a91906128fc565b60405180910390f35b61019d60048036038101906101989190612267565b610550565b005b6101b960048036038101906101b49190612161565b610668565b005b6101d560048036038101906101d09190612161565b6106c8565b005b6101f160048036038101906101ec91906122f5565b6106e8565b6040516101fe919061297e565b60405180910390f35b610221600480360381019061021c91906122f5565b610806565b60405161022e91906128fc565b60405180910390f35b610251600480360381019061024c91906120fc565b6108b8565b60405161025e9190612bde565b60405180910390f35b610281600480360381019061027c91906122f5565b610970565b60405161028e919061297e565b60405180910390f35b61029f610a8e565b6040516102ac919061297e565b60405180910390f35b6102cf60048036038101906102ca919061222b565b610b20565b005b6102eb60048036038101906102e691906121b0565b610b36565b005b610307600480360381019061030291906122f5565b610b98565b604051610314919061297e565b60405180910390f35b61033760048036038101906103329190612125565b610cea565b6040516103449190612963565b60405180910390f35b610355610d7e565b005b60007f80ac58cd000000000000000000000000000000000000000000000000000000007bffffffffffffffffffffffffffffffffffffffffffffffffffffffff1916827bffffffffffffffffffffffffffffffffffffffffffffffffffffffff1916148061042257507f5b5e139f000000000000000000000000000000000000000000000000000000007bffffffffffffffffffffffffffffffffffffffffffffffffffffffff1916827bffffffffffffffffffffffffffffffffffffffffffffffffffffffff1916145b80610432575061043182610f10565b5b9050919050565b60606000805461044890612e72565b80601f016020809104026020016040519081016040528092919081815260200182805461047490612e72565b80156104c15780601f10610496576101008083540402835291602001916104c1565b820191906000526020600020905b8154815290600101906020018083116104a457829003601f168201915b5050505050905090565b60006104d682610f7a565b610515576040517f08c379a000000000000000000000000000000000000000000000000000000000815260040161050c90612b5e565b60405180910390fd5b6004600083815260200190815260200160002060009054906101000a900473ffffffffffffffffffffffffffffffffffffffff169050919050565b600061055b82610806565b90508073ffffffffffffffffffffffffffffffffffffffff168373ffffffffffffffffffffffffffffffffffffffff1614156105cc576040517f08c379a00000000000000000000000000000000000000000000000000000000081526004016105c390612b9e565b60405180910390fd5b8073ffffffffffffffffffffffffffffffffffffffff166105eb610fe6565b73ffffffffffffffffffffffffffffffffffffffff16148061061a575061061981610614610fe6565b610cea565b5b610659576040517f08c379a000000000000000000000000000000000000000000000000000000000815260040161065090612a9e565b60405180910390fd5b6106638383610fee565b505050565b610679610673610fe6565b826110a7565b6106b8576040517f08c379a00000000000000000000000000000000000000000000000000000000081526004016106af90612bbe565b60405180910390fd5b6106c3838383611185565b505050565b6106e383838360405180602001604052806000815250610b36565b505050565b6060600061071c6106f8846113ec565b6040516020016107089190612839565b604051602081830303815290604052611599565b9050600a805490508161072f9190612f1e565b9050600a818154811061076b577f4e487b7100000000000000000000000000000000000000000000000000000000600052603260045260246000fd5b90600052602060002001805461078090612e72565b80601f01602080910402602001604051908101604052809291908181526020018280546107ac90612e72565b80156107f95780601f106107ce576101008083540402835291602001916107f9565b820191906000526020600020905b8154815290600101906020018083116107dc57829003601f168201915b5050505050915050919050565b6000806002600084815260200190815260200160002060009054906101000a900473ffffffffffffffffffffffffffffffffffffffff169050600073ffffffffffffffffffffffffffffffffffffffff168173ffffffffffffffffffffffffffffffffffffffff1614156108af576040517f08c379a00000000000000000000000000000000000000000000000000000000081526004016108a690612ade565b60405180910390fd5b80915050919050565b60008073ffffffffffffffffffffffffffffffffffffffff168273ffffffffffffffffffffffffffffffffffffffff161415610929576040517f08c379a000000000000000000000000000000000000000000000000000000000815260040161092090612abe565b60405180910390fd5b600360008373ffffffffffffffffffffffffffffffffffffffff1673ffffffffffffffffffffffffffffffffffffffff168152602001908152602001600020549050919050565b606060006109a4610980846113ec565b60405160200161099091906128da565b604051602081830303815290604052611599565b9050600b80549050816109b79190612f1e565b9050600b81815481106109f3577f4e487b7100000000000000000000000000000000000000000000000000000000600052603260045260246000fd5b906000526020600020018054610a0890612e72565b80601f0160208091040260200160405190810160405280929190818152602001828054610a3490612e72565b8015610a815780601f10610a5657610100808354040283529160200191610a81565b820191906000526020600020905b815481529060010190602001808311610a6457829003601f168201915b5050505050915050919050565b606060018054610a9d90612e72565b80601f0160208091040260200160405190810160405280929190818152602001828054610ac990612e72565b8015610b165780601f10610aeb57610100808354040283529160200191610b16565b820191906000526020600020905b815481529060010190602001808311610af957829003601f168201915b5050505050905090565b610b32610b2b610fe6565b83836115cc565b5050565b610b47610b41610fe6565b836110a7565b610b86576040517f08c379a0000000000000000000000000000000000000000000000000000000008152600401610b7d90612bbe565b60405180910390fd5b610b9284848484611739565b50505050565b6060610ba382610f7a565b610be2576040517f08c379a0000000000000000000000000000000000000000000000000000000008152600401610bd990612b3e565b60405180910390fd5b6000600660008481526020019081526020016000208054610c0290612e72565b80601f0160208091040260200160405190810160405280929190818152602001828054610c2e90612e72565b8015610c7b5780601f10610c5057610100808354040283529160200191610c7b565b820191906000526020600020905b815481529060010190602001808311610c5e57829003601f168201915b505050505090506000610c8c611795565b9050600081511415610ca2578192505050610ce5565b600082511115610cd7578082604051602001610cbf9291906127cc565b60405160208183030381529060405292505050610ce5565b610ce0846117ac565b925050505b919050565b6000600560008473ffffffffffffffffffffffffffffffffffffffff1673ffffffffffffffffffffffffffffffffffffffff16815260200190815260200160002060008373ffffffffffffffffffffffffffffffffffffffff1673ffffffffffffffffffffffffffffffffffffffff16815260200190815260200160002060009054906101000a900460ff16905092915050565b6000610d8a6007611853565b90506000610d97826106e8565b90506000610da483610970565b90506000600882600985604051602001610dc194939291906127f0565b60405160208183030381529060405290506000610e088485610de285611861565b604051602001610df49392919061285b565b604051602081830303815290604052611861565b9050600081604051602001610e1d91906128b8565b6040516020818303038152906040529050610e383387611a1f565b610e428682611a3d565b610e4c6007611ab1565b610e6f60405180606001604052806025815260200161368b602591398733611ac7565b505050505050565b610f0d81604051602401610e8b919061297e565b6040516020818303038152906040527f41304fac000000000000000000000000000000000000000000000000000000007bffffffffffffffffffffffffffffffffffffffffffffffffffffffff19166020820180517bffffffffffffffffffffffffffffffffffffffffffffffffffffffff8381831617835250505050611b66565b50565b60007f01ffc9a7000000000000000000000000000000000000000000000000000000007bffffffffffffffffffffffffffffffffffffffffffffffffffffffff1916827bffffffffffffffffffffffffffffffffffffffffffffffffffffffff1916149050919050565b60008073ffffffffffffffffffffffffffffffffffffffff166002600084815260200190815260200160002060009054906101000a900473ffffffffffffffffffffffffffffffffffffffff1673ffffffffffffffffffffffffffffffffffffffff1614159050919050565b600033905090565b816004600083815260200190815260200160002060006101000a81548173ffffffffffffffffffffffffffffffffffffffff021916908373ffffffffffffffffffffffffffffffffffffffff160217905550808273ffffffffffffffffffffffffffffffffffffffff1661106183610806565b73ffffffffffffffffffffffffffffffffffffffff167f8c5be1e5ebec7d5bd14f71427d1e84f3dd0314c0f7b2291e5b200ac8c7c3b92560405160405180910390a45050565b60006110b282610f7a565b6110f1576040517f08c379a00000000000000000000000000000000000000000000000000000000081526004016110e890612a7e565b60405180910390fd5b60006110fc83610806565b90508073ffffffffffffffffffffffffffffffffffffffff168473ffffffffffffffffffffffffffffffffffffffff16148061116b57508373ffffffffffffffffffffffffffffffffffffffff16611153846104cb565b73ffffffffffffffffffffffffffffffffffffffff16145b8061117c575061117b8185610cea565b5b91505092915050565b8273ffffffffffffffffffffffffffffffffffffffff166111a582610806565b73ffffffffffffffffffffffffffffffffffffffff16146111fb576040517f08c379a00000000000000000000000000000000000000000000000000000000081526004016111f2906129fe565b60405180910390fd5b600073ffffffffffffffffffffffffffffffffffffffff168273ffffffffffffffffffffffffffffffffffffffff16141561126b576040517f08c379a000000000000000000000000000000000000000000000000000000000815260040161126290612a3e565b60405180910390fd5b611276838383611b8f565b611281600082610fee565b6001600360008573ffffffffffffffffffffffffffffffffffffffff1673ffffffffffffffffffffffffffffffffffffffff16815260200190815260200160002060008282546112d19190612d88565b925050819055506001600360008473ffffffffffffffffffffffffffffffffffffffff1673ffffffffffffffffffffffffffffffffffffffff16815260200190815260200160002060008282546113289190612ca7565b92505081905550816002600083815260200190815260200160002060006101000a81548173ffffffffffffffffffffffffffffffffffffffff021916908373ffffffffffffffffffffffffffffffffffffffff160217905550808273ffffffffffffffffffffffffffffffffffffffff168473ffffffffffffffffffffffffffffffffffffffff167fddf252ad1be2c89b69c2b068fc378daa952ba7f163c4a11628f55a4df523b3ef60405160405180910390a46113e7838383611b94565b505050565b60606000821415611434576040518060400160405280600181526020017f30000000000000000000000000000000000000000000000000000000000000008152509050611594565b600082905060005b6000821461146657808061144f90612ed5565b915050600a8261145f9190612cfd565b915061143c565b60008167ffffffffffffffff8111156114a8577f4e487b7100000000000000000000000000000000000000000000000000000000600052604160045260246000fd5b6040519080825280601f01601f1916602001820160405280156114da5781602001600182028036833780820191505090505b5090505b6000851461158d576001826114f39190612d88565b9150600a856115029190612f1e565b603061150e9190612ca7565b60f81b81838151811061154a577f4e487b7100000000000000000000000000000000000000000000000000000000600052603260045260246000fd5b60200101907effffffffffffffffffffffffffffffffffffffffffffffffffffffffffffff1916908160001a905350600a856115869190612cfd565b94506114de565b8093505050505b919050565b6000816040516020016115ac91906127b5565b6040516020818303038152906040528051906020012060001c9050919050565b8173ffffffffffffffffffffffffffffffffffffffff168373ffffffffffffffffffffffffffffffffffffffff16141561163b576040517f08c379a000000000000000000000000000000000000000000000000000000000815260040161163290612a5e565b60405180910390fd5b80600560008573ffffffffffffffffffffffffffffffffffffffff1673ffffffffffffffffffffffffffffffffffffffff16815260200190815260200160002060008473ffffffffffffffffffffffffffffffffffffffff1673ffffffffffffffffffffffffffffffffffffffff16815260200190815260200160002060006101000a81548160ff0219169083151502179055508173ffffffffffffffffffffffffffffffffffffffff168373ffffffffffffffffffffffffffffffffffffffff167f17307eab39ab6107e8899845ad3d59bd9653f200f220920489ca2b5937696c318360405161172c9190612963565b60405180910390a3505050565b611744848484611185565b61175084848484611b99565b61178f576040517f08c379a0000000000000000000000000000000000000000000000000000000008152600401611786906129de565b60405180910390fd5b50505050565b606060405180602001604052806000815250905090565b60606117b782610f7a565b6117f6576040517f08c379a00000000000000000000000000000000000000000000000000000000081526004016117ed90612b7e565b60405180910390fd5b6000611800611795565b90506000815111611820576040518060200160405280600081525061184b565b8061182a846113ec565b60405160200161183b9291906127cc565b6040516020818303038152906040525b915050919050565b600081600001549050919050565b6060600082519050600081141561188a5760405180602001604052806000815250915050611a1a565b6000600360028361189b9190612ca7565b6118a59190612cfd565b60046118b19190612d2e565b905060006020826118c29190612ca7565b67ffffffffffffffff811115611901577f4e487b7100000000000000000000000000000000000000000000000000000000600052604160045260246000fd5b6040519080825280601f01601f1916602001820160405280156119335781602001600182028036833780820191505090505b50905060006040518060600160405280604081526020016136b0604091399050600181016020830160005b868110156119d75760038101905062ffffff818a015116603f8160121c168401518060081b905060ff603f83600c1c1686015116810190508060081b905060ff603f8360061c1686015116810190508060081b905060ff603f831686015116810190508060e01b9050808452600484019350505061195e565b5060038606600181146119f15760028114611a0157611a0c565b613d3d60f01b6002830352611a0c565b603d60f81b60018303525b508484525050819450505050505b919050565b611a39828260405180602001604052806000815250611d30565b5050565b611a4682610f7a565b611a85576040517f08c379a0000000000000000000000000000000000000000000000000000000008152600401611a7c90612afe565b60405180910390fd5b80600660008481526020019081526020016000209080519060200190611aac929190611f88565b505050565b6001816000016000828254019250508190555050565b611b61838383604051602401611adf939291906129a0565b6040516020818303038152906040527fe3849f79000000000000000000000000000000000000000000000000000000007bffffffffffffffffffffffffffffffffffffffffffffffffffffffff19166020820180517bffffffffffffffffffffffffffffffffffffffffffffffffffffffff8381831617835250505050611b66565b505050565b60008151905060006a636f6e736f6c652e6c6f679050602083016000808483855afa5050505050565b505050565b505050565b6000611bba8473ffffffffffffffffffffffffffffffffffffffff16611d8b565b15611d23578373ffffffffffffffffffffffffffffffffffffffff1663150b7a02611be3610fe6565b8786866040518563ffffffff1660e01b8152600401611c059493929190612917565b602060405180830381600087803b158015611c1f57600080fd5b505af1925050508015611c5057506040513d601f19601f82011682018060405250810190611c4d91906122cc565b60015b611cd3573d8060008114611c80576040519150601f19603f3d011682016040523d82523d6000602084013e611c85565b606091505b50600081511415611ccb576040517f08c379a0000000000000000000000000000000000000000000000000000000008152600401611cc2906129de565b60405180910390fd5b805181602001fd5b63150b7a0260e01b7bffffffffffffffffffffffffffffffffffffffffffffffffffffffff1916817bffffffffffffffffffffffffffffffffffffffffffffffffffffffff191614915050611d28565b600190505b949350505050565b611d3a8383611dae565b611d476000848484611b99565b611d86576040517f08c379a0000000000000000000000000000000000000000000000000000000008152600401611d7d906129de565b60405180910390fd5b505050565b6000808273ffffffffffffffffffffffffffffffffffffffff163b119050919050565b600073ffffffffffffffffffffffffffffffffffffffff168273ffffffffffffffffffffffffffffffffffffffff161415611e1e576040517f08c379a0000000000000000000000000000000000000000000000000000000008152600401611e1590612b1e565b60405180910390fd5b611e2781610f7a565b15611e67576040517f08c379a0000000000000000000000000000000000000000000000000000000008152600401611e5e90612a1e565b60405180910390fd5b611e7360008383611b8f565b6001600360008473ffffffffffffffffffffffffffffffffffffffff1673ffffffffffffffffffffffffffffffffffffffff1681526020019081526020016000206000828254611ec39190612ca7565b92505081905550816002600083815260200190815260200160002060006101000a81548173ffffffffffffffffffffffffffffffffffffffff021916908373ffffffffffffffffffffffffffffffffffffffff160217905550808273ffffffffffffffffffffffffffffffffffffffff16600073ffffffffffffffffffffffffffffffffffffffff167fddf252ad1be2c89b69c2b068fc378daa952ba7f163c4a11628f55a4df523b3ef60405160405180910390a4611f8460008383611b94565b5050565b828054611f9490612e72565b90600052602060002090601f016020900481019282611fb65760008555611ffd565b82601f10611fcf57805160ff1916838001178555611ffd565b82800160010185558215611ffd579182015b82811115611ffc578251825591602001919060010190611fe1565b5b50905061200a919061200e565b5090565b5b8082111561202757600081600090555060010161200f565b5090565b600061203e61203984612c1e565b612bf9565b90508281526020810184848401111561205657600080fd5b612061848285612e30565b509392505050565b6000813590506120788161362e565b92915050565b60008135905061208d81613645565b92915050565b6000813590506120a28161365c565b92915050565b6000815190506120b78161365c565b92915050565b600082601f8301126120ce57600080fd5b81356120de84826020860161202b565b91505092915050565b6000813590506120f681613673565b92915050565b60006020828403121561210e57600080fd5b600061211c84828501612069565b91505092915050565b6000806040838503121561213857600080fd5b600061214685828601612069565b925050602061215785828601612069565b9150509250929050565b60008060006060848603121561217657600080fd5b600061218486828701612069565b935050602061219586828701612069565b92505060406121a6868287016120e7565b9150509250925092565b600080600080608085870312156121c657600080fd5b60006121d487828801612069565b94505060206121e587828801612069565b93505060406121f6878288016120e7565b925050606085013567ffffffffffffffff81111561221357600080fd5b61221f878288016120bd565b91505092959194509250565b6000806040838503121561223e57600080fd5b600061224c85828601612069565b925050602061225d8582860161207e565b9150509250929050565b6000806040838503121561227a57600080fd5b600061228885828601612069565b9250506020612299858286016120e7565b9150509250929050565b6000602082840312156122b557600080fd5b60006122c384828501612093565b91505092915050565b6000602082840312156122de57600080fd5b60006122ec848285016120a8565b91505092915050565b60006020828403121561230757600080fd5b6000612315848285016120e7565b91505092915050565b61232781612dbc565b82525050565b61233681612dce565b82525050565b600061234782612c64565b6123518185612c7a565b9350612361818560208601612e3f565b61236a8161300b565b840191505092915050565b600061238082612c6f565b61238a8185612c8b565b935061239a818560208601612e3f565b6123a38161300b565b840191505092915050565b60006123b982612c6f565b6123c38185612c9c565b93506123d3818560208601612e3f565b80840191505092915050565b600081546123ec81612e72565b6123f68186612c9c565b94506001821660008114612411576001811461242257612455565b60ff19831686528186019350612455565b61242b85612c4f565b60005b8381101561244d5781548189015260018201915060208101905061242e565b838801955050505b50505092915050565b600061246b603283612c8b565b91506124768261301c565b604082019050919050565b600061248e602583612c8b565b91506124998261306b565b604082019050919050565b60006124b1601c83612c8b565b91506124bc826130ba565b602082019050919050565b60006124d4600483612c9c565b91506124df826130e3565b600482019050919050565b60006124f7602483612c8b565b91506125028261310c565b604082019050919050565b600061251a601983612c8b565b91506125258261315b565b602082019050919050565b600061253d602c83612c8b565b915061254882613184565b604082019050919050565b6000612560600d83612c9c565b915061256b826131d3565b600d82019050919050565b6000612583603883612c8b565b915061258e826131fc565b604082019050919050565b60006125a6602a83612c8b565b91506125b18261324b565b604082019050919050565b60006125c9602983612c8b565b91506125d48261329a565b604082019050919050565b60006125ec602e83612c8b565b91506125f7826132e9565b604082019050919050565b600061260f600283612c9c565b915061261a82613338565b600282019050919050565b6000612632602083612c8b565b915061263d82613361565b602082019050919050565b6000612655603183612c8b565b91506126608261338a565b604082019050919050565b6000612678602c83612c8b565b9150612683826133d9565b604082019050919050565b600061269b602583612c9c565b91506126a682613428565b602582019050919050565b60006126be602f83612c8b565b91506126c982613477565b604082019050919050565b60006126e1600a83612c9c565b91506126ec826134c6565b600a82019050919050565b6000612704602883612c9c565b915061270f826134ef565b602882019050919050565b6000612727602183612c8b565b91506127328261353e565b604082019050919050565b600061274a601d83612c9c565b91506127558261358d565b601d82019050919050565b600061276d600683612c9c565b9150612778826135b6565b600682019050919050565b6000612790603183612c8b565b915061279b826135df565b604082019050919050565b6127af81612e26565b82525050565b60006127c182846123ae565b915081905092915050565b60006127d882856123ae565b91506127e482846123ae565b91508190509392505050565b60006127fc82876123df565b915061280882866123ae565b915061281482856123df565b915061282082846123ae565b915061282b82612553565b915081905095945050505050565b6000612844826124c7565b915061285082846123ae565b915081905092915050565b6000612866826126d4565b915061287282866123ae565b915061287d8261268e565b915061288982856123ae565b9150612894826126f7565b91506128a082846123ae565b91506128ab82612602565b9150819050949350505050565b60006128c38261273d565b91506128cf82846123ae565b915081905092915050565b60006128e582612760565b91506128f182846123ae565b915081905092915050565b6000602082019050612911600083018461231e565b92915050565b600060808201905061292c600083018761231e565b612939602083018661231e565b61294660408301856127a6565b8181036060830152612958818461233c565b905095945050505050565b6000602082019050612978600083018461232d565b92915050565b600060208201905081810360008301526129988184612375565b905092915050565b600060608201905081810360008301526129ba8186612375565b90506129c960208301856127a6565b6129d6604083018461231e565b949350505050565b600060208201905081810360008301526129f78161245e565b9050919050565b60006020820190508181036000830152612a1781612481565b9050919050565b60006020820190508181036000830152612a37816124a4565b9050919050565b60006020820190508181036000830152612a57816124ea565b9050919050565b60006020820190508181036000830152612a778161250d565b9050919050565b60006020820190508181036000830152612a9781612530565b9050919050565b60006020820190508181036000830152612ab781612576565b9050919050565b60006020820190508181036000830152612ad781612599565b9050919050565b60006020820190508181036000830152612af7816125bc565b9050919050565b60006020820190508181036000830152612b17816125df565b9050919050565b60006020820190508181036000830152612b3781612625565b9050919050565b60006020820190508181036000830152612b5781612648565b9050919050565b60006020820190508181036000830152612b778161266b565b9050919050565b60006020820190508181036000830152612b97816126b1565b9050919050565b60006020820190508181036000830152612bb78161271a565b9050919050565b60006020820190508181036000830152612bd781612783565b9050919050565b6000602082019050612bf360008301846127a6565b92915050565b6000612c03612c14565b9050612c0f8282612ea4565b919050565b6000604051905090565b600067ffffffffffffffff821115612c3957612c38612fdc565b5b612c428261300b565b9050602081019050919050565b60008190508160005260206000209050919050565b600081519050919050565b600081519050919050565b600082825260208201905092915050565b600082825260208201905092915050565b600081905092915050565b6000612cb282612e26565b9150612cbd83612e26565b9250827fffffffffffffffffffffffffffffffffffffffffffffffffffffffffffffffff03821115612cf257612cf1612f4f565b5b828201905092915050565b6000612d0882612e26565b9150612d1383612e26565b925082612d2357612d22612f7e565b5b828204905092915050565b6000612d3982612e26565b9150612d4483612e26565b9250817fffffffffffffffffffffffffffffffffffffffffffffffffffffffffffffffff0483118215151615612d7d57612d7c612f4f565b5b828202905092915050565b6000612d9382612e26565b9150612d9e83612e26565b925082821015612db157612db0612f4f565b5b828203905092915050565b6000612dc782612e06565b9050919050565b60008115159050919050565b60007fffffffff0000000000000000000000000000000000000000000000000000000082169050919050565b600073ffffffffffffffffffffffffffffffffffffffff82169050919050565b6000819050919050565b82818337600083830152505050565b60005b83811015612e5d578082015181840152602081019050612e42565b83811115612e6c576000848401525b50505050565b60006002820490506001821680612e8a57607f821691505b60208210811415612e9e57612e9d612fad565b5b50919050565b612ead8261300b565b810181811067ffffffffffffffff82111715612ecc57612ecb612fdc565b5b80604052505050565b6000612ee082612e26565b91507fffffffffffffffffffffffffffffffffffffffffffffffffffffffffffffffff821415612f1357612f12612f4f565b5b600182019050919050565b6000612f2982612e26565b9150612f3483612e26565b925082612f4457612f43612f7e565b5b828206905092915050565b7f4e487b7100000000000000000000000000000000000000000000000000000000600052601160045260246000fd5b7f4e487b7100000000000000000000000000000000000000000000000000000000600052601260045260246000fd5b7f4e487b7100000000000000000000000000000000000000000000000000000000600052602260045260246000fd5b7f4e487b7100000000000000000000000000000000000000000000000000000000600052604160045260246000fd5b6000601f19601f8301169050919050565b7f4552433732313a207472616e7366657220746f206e6f6e20455243373231526560008201527f63656976657220696d706c656d656e7465720000000000000000000000000000602082015250565b7f4552433732313a207472616e736665722066726f6d20696e636f72726563742060008201527f6f776e6572000000000000000000000000000000000000000000000000000000602082015250565b7f4552433732313a20746f6b656e20616c7265616479206d696e74656400000000600082015250565b7f4e414d4500000000000000000000000000000000000000000000000000000000600082015250565b7f4552433732313a207472616e7366657220746f20746865207a65726f2061646460008201527f7265737300000000000000000000000000000000000000000000000000000000602082015250565b7f4552433732313a20617070726f766520746f2063616c6c657200000000000000600082015250565b7f4552433732313a206f70657261746f7220717565727920666f72206e6f6e657860008201527f697374656e7420746f6b656e0000000000000000000000000000000000000000602082015250565b7f3c2f746578743e3c2f7376673e00000000000000000000000000000000000000600082015250565b7f4552433732313a20617070726f76652063616c6c6572206973206e6f74206f7760008201527f6e6572206e6f7220617070726f76656420666f7220616c6c0000000000000000602082015250565b7f4552433732313a2062616c616e636520717565727920666f7220746865207a6560008201527f726f206164647265737300000000000000000000000000000000000000000000602082015250565b7f4552433732313a206f776e657220717565727920666f72206e6f6e657869737460008201527f656e7420746f6b656e0000000000000000000000000000000000000000000000602082015250565b7f45524337323155524953746f726167653a2055524920736574206f66206e6f6e60008201527f6578697374656e7420746f6b656e000000000000000000000000000000000000602082015250565b7f227d000000000000000000000000000000000000000000000000000000000000600082015250565b7f4552433732313a206d696e7420746f20746865207a65726f2061646472657373600082015250565b7f45524337323155524953746f726167653a2055524920717565727920666f722060008201527f6e6f6e6578697374656e7420746f6b656e000000000000000000000000000000602082015250565b7f4552433732313a20617070726f76656420717565727920666f72206e6f6e657860008201527f697374656e7420746f6b656e0000000000000000000000000000000000000000602082015250565b7f222c20226465736372697074696f6e223a20224120446f706520476f6174206e60008201527f616d656420000000000000000000000000000000000000000000000000000000602082015250565b7f4552433732314d657461646174613a2055524920717565727920666f72206e6f60008201527f6e6578697374656e7420746f6b656e0000000000000000000000000000000000602082015250565b7f7b226e616d65223a202200000000000000000000000000000000000000000000600082015250565b7f2e222c2022696d616765223a2022646174613a696d6167652f7376672b786d6c60008201527f3b6261736536342c000000000000000000000000000000000000000000000000602082015250565b7f4552433732313a20617070726f76616c20746f2063757272656e74206f776e6560008201527f7200000000000000000000000000000000000000000000000000000000000000602082015250565b7f646174613a6170706c69636174696f6e2f6a736f6e3b6261736536342c000000600082015250565b7f434f4c4f55520000000000000000000000000000000000000000000000000000600082015250565b7f4552433732313a207472616e736665722063616c6c6572206973206e6f74206f60008201527f776e6572206e6f7220617070726f766564000000000000000000000000000000602082015250565b61363781612dbc565b811461364257600080fd5b50565b61364e81612dce565b811461365957600080fd5b50565b61366581612dda565b811461367057600080fd5b50565b61367c81612e26565b811461368757600080fd5b5056fe416e204e465420772f20494420257320686173206265656e206d696e74656420746f2025734142434445464748494a4b4c4d4e4f505152535455565758595a6162636465666768696a6b6c6d6e6f707172737475767778797a303132333435363738392b2fa264697066735822122059bd101016b411ae7255c8ba4683e821f75a48d0ed2db5ae1bbfc9259fdba08064736f6c634300080100333c73766720786d6c6e733d27687474703a2f2f7777772e77332e6f72672f323030302f73766727207072657365727665417370656374526174696f3d27784d696e594d696e206d656574272076696577426f783d273020302033353020333530273e3c7374796c653e2e62617365207b2066696c6c3a2077686974653b20666f6e742d66616d696c793a2073657269663b20666f6e742d73697a653a20323470783b207d3c2f7374796c653e3c726563742077696474683d273130302527206865696768743d2731303025272066696c6c3d2727202f3e3c7465787420783d273530252720793d273530252720636c6173733d27626173652720646f6d696e616e742d626173656c696e653d276d6964646c652720746578742d616e63686f723d276d6964646c65273e446f7065476f617454686973206973206d7920446f706520476f6174204e465420636f6e74726163742e20576f616821",
    "linkReferences": {},
    "deployedLinkReferences": {}
}