{
  "_format": "hh-sol-artifact-1",
  "contractName": "NFTMinter",
  "sourceName": "contracts/NFTMinter.sol",
  "abi": [
    {
      "inputs": [],
      "stateMutability": "nonpayable",
      "type": "constructor"
    },
    {
      "anonymous": false,
      "inputs": [
        {
          "indexed": true,
          "internalType": "address",
          "name": "owner",
          "type": "address"
        },
        {
          "indexed": true,
          "internalType": "address",
          "name": "approved",
          "type": "address"
        },
        {
          "indexed": true,
          "internalType": "uint256",
          "name": "tokenId",
          "type": "uint256"
        }
      ],
      "name": "Approval",
      "type": "event"
    },
    {
      "anonymous": false,
      "inputs": [
        {
          "indexed": true,
          "internalType": "address",
          "name": "owner",
          "type": "address"
        },
        {
          "indexed": true,
          "internalType": "address",
          "name": "operator",
          "type": "address"
        },
        {
          "indexed": false,
          "internalType": "bool",
          "name": "approved",
          "type": "bool"
        }
      ],
      "name": "ApprovalForAll",
      "type": "event"
    },
    {
      "anonymous": false,
      "inputs": [
        {
          "indexed": false,
          "internalType": "address",
          "name": "sender",
          "type": "address"
        },
        {
          "indexed": false,
          "internalType": "uint256",
          "name": "tokenId",
          "type": "uint256"
        }
      ],
      "name": "NFTMinted",
      "type": "event"
    },
    {
      "anonymous": false,
      "inputs": [
        {
          "indexed": true,
          "internalType": "address",
          "name": "previousOwner",
          "type": "address"
        },
        {
          "indexed": true,
          "internalType": "address",
          "name": "newOwner",
          "type": "address"
        }
      ],
      "name": "OwnershipTransferred",
      "type": "event"
    },
    {
      "anonymous": false,
      "inputs": [
        {
          "indexed": true,
          "internalType": "address",
          "name": "from",
          "type": "address"
        },
        {
          "indexed": true,
          "internalType": "address",
          "name": "to",
          "type": "address"
        },
        {
          "indexed": true,
          "internalType": "uint256",
          "name": "tokenId",
          "type": "uint256"
        }
      ],
      "name": "Transfer",
      "type": "event"
    },
    {
      "inputs": [
        {
          "internalType": "address",
          "name": "to",
          "type": "address"
        },
        {
          "internalType": "uint256",
          "name": "tokenId",
          "type": "uint256"
        }
      ],
      "name": "approve",
      "outputs": [],
      "stateMutability": "nonpayable",
      "type": "function"
    },
    {
      "inputs": [
        {
          "internalType": "address",
          "name": "owner",
          "type": "address"
        }
      ],
      "name": "balanceOf",
      "outputs": [
        {
          "internalType": "uint256",
          "name": "",
          "type": "uint256"
        }
      ],
      "stateMutability": "view",
      "type": "function"
    },
    {
      "inputs": [
        {
          "internalType": "uint256",
          "name": "tokenId",
          "type": "uint256"
        }
      ],
      "name": "getApproved",
      "outputs": [
        {
          "internalType": "address",
          "name": "",
          "type": "address"
        }
      ],
      "stateMutability": "view",
      "type": "function"
    },
    {
      "inputs": [
        {
          "internalType": "address",
          "name": "owner",
          "type": "address"
        },
        {
          "internalType": "address",
          "name": "operator",
          "type": "address"
        }
      ],
      "name": "isApprovedForAll",
      "outputs": [
        {
          "internalType": "bool",
          "name": "",
          "type": "bool"
        }
      ],
      "stateMutability": "view",
      "type": "function"
    },
    {
      "inputs": [],
      "name": "makeDGNFT",
      "outputs": [],
      "stateMutability": "payable",
      "type": "function"
    },
    {
      "inputs": [],
      "name": "name",
      "outputs": [
        {
          "internalType": "string",
          "name": "",
          "type": "string"
        }
      ],
      "stateMutability": "view",
      "type": "function"
    },
    {
      "inputs": [],
      "name": "owner",
      "outputs": [
        {
          "internalType": "address",
          "name": "",
          "type": "address"
        }
      ],
      "stateMutability": "view",
      "type": "function"
    },
    {
      "inputs": [
        {
          "internalType": "uint256",
          "name": "tokenId",
          "type": "uint256"
        }
      ],
      "name": "ownerOf",
      "outputs": [
        {
          "internalType": "address",
          "name": "",
          "type": "address"
        }
      ],
      "stateMutability": "view",
      "type": "function"
    },
    {
      "inputs": [
        {
          "internalType": "uint256",
          "name": "tokenId",
          "type": "uint256"
        }
      ],
      "name": "randomColour",
      "outputs": [
        {
          "internalType": "string",
          "name": "",
          "type": "string"
        }
      ],
      "stateMutability": "view",
      "type": "function"
    },
    {
      "inputs": [
        {
          "internalType": "uint256",
          "name": "tokenId",
          "type": "uint256"
        }
      ],
      "name": "randomName",
      "outputs": [
        {
          "internalType": "string",
          "name": "",
          "type": "string"
        }
      ],
      "stateMutability": "view",
      "type": "function"
    },
    {
      "inputs": [],
      "name": "renounceOwnership",
      "outputs": [],
      "stateMutability": "nonpayable",
      "type": "function"
    },
    {
      "inputs": [
        {
          "internalType": "address",
          "name": "from",
          "type": "address"
        },
        {
          "internalType": "address",
          "name": "to",
          "type": "address"
        },
        {
          "internalType": "uint256",
          "name": "tokenId",
          "type": "uint256"
        }
      ],
      "name": "safeTransferFrom",
      "outputs": [],
      "stateMutability": "nonpayable",
      "type": "function"
    },
    {
      "inputs": [
        {
          "internalType": "address",
          "name": "from",
          "type": "address"
        },
        {
          "internalType": "address",
          "name": "to",
          "type": "address"
        },
        {
          "internalType": "uint256",
          "name": "tokenId",
          "type": "uint256"
        },
        {
          "internalType": "bytes",
          "name": "_data",
          "type": "bytes"
        }
      ],
      "name": "safeTransferFrom",
      "outputs": [],
      "stateMutability": "nonpayable",
      "type": "function"
    },
    {
      "inputs": [
        {
          "internalType": "address",
          "name": "operator",
          "type": "address"
        },
        {
          "internalType": "bool",
          "name": "approved",
          "type": "bool"
        }
      ],
      "name": "setApprovalForAll",
      "outputs": [],
      "stateMutability": "nonpayable",
      "type": "function"
    },
    {
      "inputs": [
        {
          "internalType": "bytes4",
          "name": "interfaceId",
          "type": "bytes4"
        }
      ],
      "name": "supportsInterface",
      "outputs": [
        {
          "internalType": "bool",
          "name": "",
          "type": "bool"
        }
      ],
      "stateMutability": "view",
      "type": "function"
    },
    {
      "inputs": [],
      "name": "symbol",
      "outputs": [
        {
          "internalType": "string",
          "name": "",
          "type": "string"
        }
      ],
      "stateMutability": "view",
      "type": "function"
    },
    {
      "inputs": [
        {
          "internalType": "uint256",
          "name": "tokenId",
          "type": "uint256"
        }
      ],
      "name": "tokenURI",
      "outputs": [
        {
          "internalType": "string",
          "name": "",
          "type": "string"
        }
      ],
      "stateMutability": "view",
      "type": "function"
    },
    {
      "inputs": [
        {
          "internalType": "address",
          "name": "from",
          "type": "address"
        },
        {
          "internalType": "address",
          "name": "to",
          "type": "address"
        },
        {
          "internalType": "uint256",
          "name": "tokenId",
          "type": "uint256"
        }
      ],
      "name": "transferFrom",
      "outputs": [],
      "stateMutability": "nonpayable",
      "type": "function"
    },
    {
      "inputs": [
        {
          "internalType": "address",
          "name": "newOwner",
          "type": "address"
        }
      ],
      "name": "transferOwnership",
      "outputs": [],
      "stateMutability": "nonpayable",
      "type": "function"
    },
    {
      "inputs": [
        {
          "internalType": "address payable",
          "name": "_to",
          "type": "address"
        }
      ],
      "name": "withdrawFunds",
      "outputs": [],
      "stateMutability": "nonpayable",
      "type": "function"
    }
  ],
  "bytecode": "0x608060405260405180610100016040528060d3815260200162004c0260d39139600990805190602001906200003692919062000a65565b506040518060800160405280605f815260200162004cd5605f9139600a90805190602001906200006892919062000a65565b506040518061020001604052806040518060400160405280600681526020017f416c66726564000000000000000000000000000000000000000000000000000081525081526020016040518060400160405280600881526020017f4265727472616e6400000000000000000000000000000000000000000000000081525081526020016040518060400160405280600781526020017f436861726c65730000000000000000000000000000000000000000000000000081525081526020016040518060400160405280600681526020017f44656e6e6973000000000000000000000000000000000000000000000000000081525081526020016040518060400160405280600681526020017f457567656e65000000000000000000000000000000000000000000000000000081525081526020016040518060400160405280600981526020017f467269656472696368000000000000000000000000000000000000000000000081525081526020016040518060400160405280600681526020017f47656f726765000000000000000000000000000000000000000000000000000081525081526020016040518060400160405280600481526020017f48616e730000000000000000000000000000000000000000000000000000000081525081526020016040518060400160405280600481526020017f4976616e0000000000000000000000000000000000000000000000000000000081525081526020016040518060400160405280600681526020017f4a756c697573000000000000000000000000000000000000000000000000000081525081526020016040518060400160405280600581526020017f4b6c61757300000000000000000000000000000000000000000000000000000081525081526020016040518060400160405280600681526020017f4c7564776967000000000000000000000000000000000000000000000000000081525081526020016040518060400160405280600781526020017f4d616e667265640000000000000000000000000000000000000000000000000081525081526020016040518060400160405280600481526020017f4e696c730000000000000000000000000000000000000000000000000000000081525081526020016040518060400160405280600481526020017f4f74746f0000000000000000000000000000000000000000000000000000000081525081526020016040518060400160405280600481526020017f5061756c00000000000000000000000000000000000000000000000000000000815250815250600b9060106200043592919062000af6565b50604051806101e001604052806040518060400160405280600781526020017f6372696d736f6e0000000000000000000000000000000000000000000000000081525081526020016040518060400160405280600d81526020017f6461726b736c617465626c75650000000000000000000000000000000000000081525081526020016040518060400160405280600981526020017f6461726b677265656e000000000000000000000000000000000000000000000081525081526020016040518060400160405280600981526020017f6275726c79776f6f64000000000000000000000000000000000000000000000081525081526020016040518060400160405280600581526020017f636f72616c00000000000000000000000000000000000000000000000000000081525081526020016040518060400160405280600c81526020017f6d69646e69676874626c7565000000000000000000000000000000000000000081525081526020016040518060400160405280600f81526020017f6d656469756d76696f6c6574726564000000000000000000000000000000000081525081526020016040518060400160405280600981526020017f6c69676874626c7565000000000000000000000000000000000000000000000081525081526020016040518060400160405280600881526020017f736561677265656e00000000000000000000000000000000000000000000000081525081526020016040518060400160405280600981526020017f737465656c626c7565000000000000000000000000000000000000000000000081525081526020016040518060400160405280601081526020017f6d656469756d617175616d6172696e650000000000000000000000000000000081525081526020016040518060400160405280600481526020017f706c756d0000000000000000000000000000000000000000000000000000000081525081526020016040518060400160405280600681526020017f7369656e6e61000000000000000000000000000000000000000000000000000081525081526020016040518060400160405280600981526020017f6c696d65677265656e000000000000000000000000000000000000000000000081525081526020016040518060400160405280600681526020017f6f72636869640000000000000000000000000000000000000000000000000000815250815250600c90600f620007c792919062000b5d565b50348015620007d557600080fd5b506040518060400160405280600981526020017f446f7065476f61747300000000000000000000000000000000000000000000008152506040518060400160405280600481526020017f445047540000000000000000000000000000000000000000000000000000000081525081600090805190602001906200085a92919062000a65565b5080600190805190602001906200087392919062000a65565b505050620008966200088a620008cb60201b60201c565b620008d360201b60201c565b620008c560405180606001604052806028815260200162004d34602891396200099960201b620012e01760201c565b62000d7e565b600033905090565b6000600760009054906101000a900473ffffffffffffffffffffffffffffffffffffffff16905081600760006101000a81548173ffffffffffffffffffffffffffffffffffffffff021916908373ffffffffffffffffffffffffffffffffffffffff1602179055508173ffffffffffffffffffffffffffffffffffffffff168173ffffffffffffffffffffffffffffffffffffffff167f8be0079c531659141344cd1fd0a4f28419497f9722a3daafe3b4186f6b6457e060405160405180910390a35050565b62000a3981604051602401620009b0919062000c92565b6040516020818303038152906040527f41304fac000000000000000000000000000000000000000000000000000000007bffffffffffffffffffffffffffffffffffffffffffffffffffffffff19166020820180517bffffffffffffffffffffffffffffffffffffffffffffffffffffffff838183161783525050505062000a3c60201b60201c565b50565b60008151905060006a636f6e736f6c652e6c6f679050602083016000808483855afa5050505050565b82805462000a739062000d08565b90600052602060002090601f01602090048101928262000a97576000855562000ae3565b82601f1062000ab257805160ff191683800117855562000ae3565b8280016001018555821562000ae3579182015b8281111562000ae257825182559160200191906001019062000ac5565b5b50905062000af2919062000bc4565b5090565b82805482825590600052602060002090810192821562000b4a579160200282015b8281111562000b4957825182908051906020019062000b3892919062000a65565b509160200191906001019062000b17565b5b50905062000b59919062000be3565b5090565b82805482825590600052602060002090810192821562000bb1579160200282015b8281111562000bb057825182908051906020019062000b9f92919062000a65565b509160200191906001019062000b7e565b5b50905062000bc0919062000be3565b5090565b5b8082111562000bdf57600081600090555060010162000bc5565b5090565b5b8082111562000c07576000818162000bfd919062000c0b565b5060010162000be4565b5090565b50805462000c199062000d08565b6000825580601f1062000c2d575062000c4e565b601f01602090049060005260206000209081019062000c4d919062000bc4565b5b50565b600062000c5e8262000cb6565b62000c6a818562000cc1565b935062000c7c81856020860162000cd2565b62000c878162000d6d565b840191505092915050565b6000602082019050818103600083015262000cae818462000c51565b905092915050565b600081519050919050565b600082825260208201905092915050565b60005b8381101562000cf257808201518184015260208101905062000cd5565b8381111562000d02576000848401525b50505050565b6000600282049050600182168062000d2157607f821691505b6020821081141562000d385762000d3762000d3e565b5b50919050565b7f4e487b7100000000000000000000000000000000000000000000000000000000600052602260045260246000fd5b6000601f19601f8301169050919050565b613e748062000d8e6000396000f3fe60806040526004361061011f5760003560e01c8063715018a6116100a0578063b88d4fde11610064578063b88d4fde146103f7578063c87b56dd14610420578063e985e9c51461045d578063f2fde38b1461049a578063fe74d806146104c35761011f565b8063715018a6146103245780637ae647561461033b5780638da5cb5b1461037857806395d89b41146103a3578063a22cb465146103ce5761011f565b806342842e0e116100e757806342842e0e1461021b5780634ebd91ab146102445780636352211e1461028157806368742da6146102be57806370a08231146102e75761011f565b806301ffc9a71461012457806306fdde0314610161578063081812fc1461018c578063095ea7b3146101c957806323b872dd146101f2575b600080fd5b34801561013057600080fd5b5061014b60048036038101906101469190612810565b6104cd565b6040516101589190612f62565b60405180910390f35b34801561016d57600080fd5b506101766105af565b6040516101839190612f7d565b60405180910390f35b34801561019857600080fd5b506101b360048036038101906101ae9190612862565b610641565b6040516101c09190612ed2565b60405180910390f35b3480156101d557600080fd5b506101f060048036038101906101eb91906127d4565b6106c6565b005b3480156101fe57600080fd5b50610219600480360381019061021491906126ce565b6107de565b005b34801561022757600080fd5b50610242600480360381019061023d91906126ce565b61083e565b005b34801561025057600080fd5b5061026b60048036038101906102669190612862565b61085e565b6040516102789190612f7d565b60405180910390f35b34801561028d57600080fd5b506102a860048036038101906102a39190612862565b61097c565b6040516102b59190612ed2565b60405180910390f35b3480156102ca57600080fd5b506102e560048036038101906102e09190612669565b610a2e565b005b3480156102f357600080fd5b5061030e60048036038101906103099190612640565b610af4565b60405161031b919061323d565b60405180910390f35b34801561033057600080fd5b50610339610bac565b005b34801561034757600080fd5b50610362600480360381019061035d9190612862565b610c34565b60405161036f9190612f7d565b60405180910390f35b34801561038457600080fd5b5061038d610d52565b60405161039a9190612ed2565b60405180910390f35b3480156103af57600080fd5b506103b8610d7c565b6040516103c59190612f7d565b60405180910390f35b3480156103da57600080fd5b506103f560048036038101906103f09190612798565b610e0e565b005b34801561040357600080fd5b5061041e6004803603810190610419919061271d565b610e24565b005b34801561042c57600080fd5b5061044760048036038101906104429190612862565b610e86565b6040516104549190612f7d565b60405180910390f35b34801561046957600080fd5b50610484600480360381019061047f9190612692565b610fd8565b6040516104919190612f62565b60405180910390f35b3480156104a657600080fd5b506104c160048036038101906104bc9190612640565b61106c565b005b6104cb611164565b005b60007f80ac58cd000000000000000000000000000000000000000000000000000000007bffffffffffffffffffffffffffffffffffffffffffffffffffffffff1916827bffffffffffffffffffffffffffffffffffffffffffffffffffffffff1916148061059857507f5b5e139f000000000000000000000000000000000000000000000000000000007bffffffffffffffffffffffffffffffffffffffffffffffffffffffff1916827bffffffffffffffffffffffffffffffffffffffffffffffffffffffff1916145b806105a857506105a782611379565b5b9050919050565b6060600080546105be906134e3565b80601f01602080910402602001604051908101604052809291908181526020018280546105ea906134e3565b80156106375780601f1061060c57610100808354040283529160200191610637565b820191906000526020600020905b81548152906001019060200180831161061a57829003601f168201915b5050505050905090565b600061064c826113e3565b61068b576040517f08c379a00000000000000000000000000000000000000000000000000000000081526004016106829061319d565b60405180910390fd5b6004600083815260200190815260200160002060009054906101000a900473ffffffffffffffffffffffffffffffffffffffff169050919050565b60006106d18261097c565b90508073ffffffffffffffffffffffffffffffffffffffff168373ffffffffffffffffffffffffffffffffffffffff161415610742576040517f08c379a0000000000000000000000000000000000000000000000000000000008152600401610739906131fd565b60405180910390fd5b8073ffffffffffffffffffffffffffffffffffffffff1661076161144f565b73ffffffffffffffffffffffffffffffffffffffff161480610790575061078f8161078a61144f565b610fd8565b5b6107cf576040517f08c379a00000000000000000000000000000000000000000000000000000000081526004016107c6906130dd565b60405180910390fd5b6107d98383611457565b505050565b6107ef6107e961144f565b82611510565b61082e576040517f08c379a00000000000000000000000000000000000000000000000000000000081526004016108259061321d565b60405180910390fd5b6108398383836115ee565b505050565b61085983838360405180602001604052806000815250610e24565b505050565b6060600061089261086e84611855565b60405160200161087e9190612e0f565b604051602081830303815290604052611a02565b9050600b80549050816108a5919061358f565b9050600b81815481106108e1577f4e487b7100000000000000000000000000000000000000000000000000000000600052603260045260246000fd5b9060005260206000200180546108f6906134e3565b80601f0160208091040260200160405190810160405280929190818152602001828054610922906134e3565b801561096f5780601f106109445761010080835404028352916020019161096f565b820191906000526020600020905b81548152906001019060200180831161095257829003601f168201915b5050505050915050919050565b6000806002600084815260200190815260200160002060009054906101000a900473ffffffffffffffffffffffffffffffffffffffff169050600073ffffffffffffffffffffffffffffffffffffffff168173ffffffffffffffffffffffffffffffffffffffff161415610a25576040517f08c379a0000000000000000000000000000000000000000000000000000000008152600401610a1c9061311d565b60405180910390fd5b80915050919050565b610a3661144f565b73ffffffffffffffffffffffffffffffffffffffff16610a54610d52565b73ffffffffffffffffffffffffffffffffffffffff1614610aaa576040517f08c379a0000000000000000000000000000000000000000000000000000000008152600401610aa1906131bd565b60405180910390fd5b8073ffffffffffffffffffffffffffffffffffffffff166108fc479081150290604051600060405180830381858888f19350505050158015610af0573d6000803e3d6000fd5b5050565b60008073ffffffffffffffffffffffffffffffffffffffff168273ffffffffffffffffffffffffffffffffffffffff161415610b65576040517f08c379a0000000000000000000000000000000000000000000000000000000008152600401610b5c906130fd565b60405180910390fd5b600360008373ffffffffffffffffffffffffffffffffffffffff1673ffffffffffffffffffffffffffffffffffffffff168152602001908152602001600020549050919050565b610bb461144f565b73ffffffffffffffffffffffffffffffffffffffff16610bd2610d52565b73ffffffffffffffffffffffffffffffffffffffff1614610c28576040517f08c379a0000000000000000000000000000000000000000000000000000000008152600401610c1f906131bd565b60405180910390fd5b610c326000611a35565b565b60606000610c68610c4484611855565b604051602001610c549190612eb0565b604051602081830303815290604052611a02565b9050600c8054905081610c7b919061358f565b9050600c8181548110610cb7577f4e487b7100000000000000000000000000000000000000000000000000000000600052603260045260246000fd5b906000526020600020018054610ccc906134e3565b80601f0160208091040260200160405190810160405280929190818152602001828054610cf8906134e3565b8015610d455780601f10610d1a57610100808354040283529160200191610d45565b820191906000526020600020905b815481529060010190602001808311610d2857829003601f168201915b5050505050915050919050565b6000600760009054906101000a900473ffffffffffffffffffffffffffffffffffffffff16905090565b606060018054610d8b906134e3565b80601f0160208091040260200160405190810160405280929190818152602001828054610db7906134e3565b8015610e045780601f10610dd957610100808354040283529160200191610e04565b820191906000526020600020905b815481529060010190602001808311610de757829003601f168201915b5050505050905090565b610e20610e1961144f565b8383611afb565b5050565b610e35610e2f61144f565b83611510565b610e74576040517f08c379a0000000000000000000000000000000000000000000000000000000008152600401610e6b9061321d565b60405180910390fd5b610e8084848484611c68565b50505050565b6060610e91826113e3565b610ed0576040517f08c379a0000000000000000000000000000000000000000000000000000000008152600401610ec79061317d565b60405180910390fd5b6000600660008481526020019081526020016000208054610ef0906134e3565b80601f0160208091040260200160405190810160405280929190818152602001828054610f1c906134e3565b8015610f695780601f10610f3e57610100808354040283529160200191610f69565b820191906000526020600020905b815481529060010190602001808311610f4c57829003601f168201915b505050505090506000610f7a611cc4565b9050600081511415610f90578192505050610fd3565b600082511115610fc5578082604051602001610fad929190612da2565b60405160208183030381529060405292505050610fd3565b610fce84611cdb565b925050505b919050565b6000600560008473ffffffffffffffffffffffffffffffffffffffff1673ffffffffffffffffffffffffffffffffffffffff16815260200190815260200160002060008373ffffffffffffffffffffffffffffffffffffffff1673ffffffffffffffffffffffffffffffffffffffff16815260200190815260200160002060009054906101000a900460ff16905092915050565b61107461144f565b73ffffffffffffffffffffffffffffffffffffffff16611092610d52565b73ffffffffffffffffffffffffffffffffffffffff16146110e8576040517f08c379a00000000000000000000000000000000000000000000000000000000081526004016110df906131bd565b60405180910390fd5b600073ffffffffffffffffffffffffffffffffffffffff168173ffffffffffffffffffffffffffffffffffffffff161415611158576040517f08c379a000000000000000000000000000000000000000000000000000000000815260040161114f90612ffd565b60405180910390fd5b61116181611a35565b50565b662386f26fc100003410156111ae576040517f08c379a00000000000000000000000000000000000000000000000000000000081526004016111a5906130bd565b60405180910390fd5b60006111ba6008611d82565b905060006111c78261085e565b905060006111d483610c34565b90506000600982600a856040516020016111f19493929190612dc6565b60405160208183030381529060405290506000611238848561121285611d90565b60405160200161122493929190612e31565b604051602081830303815290604052611d90565b905060008160405160200161124d9190612e8e565b60405160208183030381529060405290506112683387611f4e565b6112728682611f6c565b61127c6008611fe0565b61129f604051806060016040528060258152602001613dda602591398733611ff6565b7f4cc0a9c4a99ddc700de1af2c9f916a7cbfdb71f14801ccff94061ad1ef8a804033876040516112d0929190612f39565b60405180910390a1505050505050565b611376816040516024016112f49190612f7d565b6040516020818303038152906040527f41304fac000000000000000000000000000000000000000000000000000000007bffffffffffffffffffffffffffffffffffffffffffffffffffffffff19166020820180517bffffffffffffffffffffffffffffffffffffffffffffffffffffffff8381831617835250505050612095565b50565b60007f01ffc9a7000000000000000000000000000000000000000000000000000000007bffffffffffffffffffffffffffffffffffffffffffffffffffffffff1916827bffffffffffffffffffffffffffffffffffffffffffffffffffffffff1916149050919050565b60008073ffffffffffffffffffffffffffffffffffffffff166002600084815260200190815260200160002060009054906101000a900473ffffffffffffffffffffffffffffffffffffffff1673ffffffffffffffffffffffffffffffffffffffff1614159050919050565b600033905090565b816004600083815260200190815260200160002060006101000a81548173ffffffffffffffffffffffffffffffffffffffff021916908373ffffffffffffffffffffffffffffffffffffffff160217905550808273ffffffffffffffffffffffffffffffffffffffff166114ca8361097c565b73ffffffffffffffffffffffffffffffffffffffff167f8c5be1e5ebec7d5bd14f71427d1e84f3dd0314c0f7b2291e5b200ac8c7c3b92560405160405180910390a45050565b600061151b826113e3565b61155a576040517f08c379a00000000000000000000000000000000000000000000000000000000081526004016115519061309d565b60405180910390fd5b60006115658361097c565b90508073ffffffffffffffffffffffffffffffffffffffff168473ffffffffffffffffffffffffffffffffffffffff1614806115d457508373ffffffffffffffffffffffffffffffffffffffff166115bc84610641565b73ffffffffffffffffffffffffffffffffffffffff16145b806115e557506115e48185610fd8565b5b91505092915050565b8273ffffffffffffffffffffffffffffffffffffffff1661160e8261097c565b73ffffffffffffffffffffffffffffffffffffffff1614611664576040517f08c379a000000000000000000000000000000000000000000000000000000000815260040161165b9061301d565b60405180910390fd5b600073ffffffffffffffffffffffffffffffffffffffff168273ffffffffffffffffffffffffffffffffffffffff1614156116d4576040517f08c379a00000000000000000000000000000000000000000000000000000000081526004016116cb9061305d565b60405180910390fd5b6116df8383836120be565b6116ea600082611457565b6001600360008573ffffffffffffffffffffffffffffffffffffffff1673ffffffffffffffffffffffffffffffffffffffff168152602001908152602001600020600082825461173a91906133e7565b925050819055506001600360008473ffffffffffffffffffffffffffffffffffffffff1673ffffffffffffffffffffffffffffffffffffffff16815260200190815260200160002060008282546117919190613306565b92505081905550816002600083815260200190815260200160002060006101000a81548173ffffffffffffffffffffffffffffffffffffffff021916908373ffffffffffffffffffffffffffffffffffffffff160217905550808273ffffffffffffffffffffffffffffffffffffffff168473ffffffffffffffffffffffffffffffffffffffff167fddf252ad1be2c89b69c2b068fc378daa952ba7f163c4a11628f55a4df523b3ef60405160405180910390a46118508383836120c3565b505050565b6060600082141561189d576040518060400160405280600181526020017f300000000000000000000000000000000000000000000000000000000000000081525090506119fd565b600082905060005b600082146118cf5780806118b890613546565b915050600a826118c8919061335c565b91506118a5565b60008167ffffffffffffffff811115611911577f4e487b7100000000000000000000000000000000000000000000000000000000600052604160045260246000fd5b6040519080825280601f01601f1916602001820160405280156119435781602001600182028036833780820191505090505b5090505b600085146119f65760018261195c91906133e7565b9150600a8561196b919061358f565b60306119779190613306565b60f81b8183815181106119b3577f4e487b7100000000000000000000000000000000000000000000000000000000600052603260045260246000fd5b60200101907effffffffffffffffffffffffffffffffffffffffffffffffffffffffffffff1916908160001a905350600a856119ef919061335c565b9450611947565b8093505050505b919050565b600081604051602001611a159190612d8b565b6040516020818303038152906040528051906020012060001c9050919050565b6000600760009054906101000a900473ffffffffffffffffffffffffffffffffffffffff16905081600760006101000a81548173ffffffffffffffffffffffffffffffffffffffff021916908373ffffffffffffffffffffffffffffffffffffffff1602179055508173ffffffffffffffffffffffffffffffffffffffff168173ffffffffffffffffffffffffffffffffffffffff167f8be0079c531659141344cd1fd0a4f28419497f9722a3daafe3b4186f6b6457e060405160405180910390a35050565b8173ffffffffffffffffffffffffffffffffffffffff168373ffffffffffffffffffffffffffffffffffffffff161415611b6a576040517f08c379a0000000000000000000000000000000000000000000000000000000008152600401611b619061307d565b60405180910390fd5b80600560008573ffffffffffffffffffffffffffffffffffffffff1673ffffffffffffffffffffffffffffffffffffffff16815260200190815260200160002060008473ffffffffffffffffffffffffffffffffffffffff1673ffffffffffffffffffffffffffffffffffffffff16815260200190815260200160002060006101000a81548160ff0219169083151502179055508173ffffffffffffffffffffffffffffffffffffffff168373ffffffffffffffffffffffffffffffffffffffff167f17307eab39ab6107e8899845ad3d59bd9653f200f220920489ca2b5937696c3183604051611c5b9190612f62565b60405180910390a3505050565b611c738484846115ee565b611c7f848484846120c8565b611cbe576040517f08c379a0000000000000000000000000000000000000000000000000000000008152600401611cb590612fdd565b60405180910390fd5b50505050565b606060405180602001604052806000815250905090565b6060611ce6826113e3565b611d25576040517f08c379a0000000000000000000000000000000000000000000000000000000008152600401611d1c906131dd565b60405180910390fd5b6000611d2f611cc4565b90506000815111611d4f5760405180602001604052806000815250611d7a565b80611d5984611855565b604051602001611d6a929190612da2565b6040516020818303038152906040525b915050919050565b600081600001549050919050565b60606000825190506000811415611db95760405180602001604052806000815250915050611f49565b60006003600283611dca9190613306565b611dd4919061335c565b6004611de0919061338d565b90506000602082611df19190613306565b67ffffffffffffffff811115611e30577f4e487b7100000000000000000000000000000000000000000000000000000000600052604160045260246000fd5b6040519080825280601f01601f191660200182016040528015611e625781602001600182028036833780820191505090505b5090506000604051806060016040528060408152602001613dff604091399050600181016020830160005b86811015611f065760038101905062ffffff818a015116603f8160121c168401518060081b905060ff603f83600c1c1686015116810190508060081b905060ff603f8360061c1686015116810190508060081b905060ff603f831686015116810190508060e01b90508084526004840193505050611e8d565b506003860660018114611f205760028114611f3057611f3b565b613d3d60f01b6002830352611f3b565b603d60f81b60018303525b508484525050819450505050505b919050565b611f6882826040518060200160405280600081525061225f565b5050565b611f75826113e3565b611fb4576040517f08c379a0000000000000000000000000000000000000000000000000000000008152600401611fab9061313d565b60405180910390fd5b80600660008481526020019081526020016000209080519060200190611fdb9291906124b7565b505050565b6001816000016000828254019250508190555050565b61209083838360405160240161200e93929190612f9f565b6040516020818303038152906040527fe3849f79000000000000000000000000000000000000000000000000000000007bffffffffffffffffffffffffffffffffffffffffffffffffffffffff19166020820180517bffffffffffffffffffffffffffffffffffffffffffffffffffffffff8381831617835250505050612095565b505050565b60008151905060006a636f6e736f6c652e6c6f679050602083016000808483855afa5050505050565b505050565b505050565b60006120e98473ffffffffffffffffffffffffffffffffffffffff166122ba565b15612252578373ffffffffffffffffffffffffffffffffffffffff1663150b7a0261211261144f565b8786866040518563ffffffff1660e01b81526004016121349493929190612eed565b602060405180830381600087803b15801561214e57600080fd5b505af192505050801561217f57506040513d601f19601f8201168201806040525081019061217c9190612839565b60015b612202573d80600081146121af576040519150601f19603f3d011682016040523d82523d6000602084013e6121b4565b606091505b506000815114156121fa576040517f08c379a00000000000000000000000000000000000000000000000000000000081526004016121f190612fdd565b60405180910390fd5b805181602001fd5b63150b7a0260e01b7bffffffffffffffffffffffffffffffffffffffffffffffffffffffff1916817bffffffffffffffffffffffffffffffffffffffffffffffffffffffff191614915050612257565b600190505b949350505050565b61226983836122dd565b61227660008484846120c8565b6122b5576040517f08c379a00000000000000000000000000000000000000000000000000000000081526004016122ac90612fdd565b60405180910390fd5b505050565b6000808273ffffffffffffffffffffffffffffffffffffffff163b119050919050565b600073ffffffffffffffffffffffffffffffffffffffff168273ffffffffffffffffffffffffffffffffffffffff16141561234d576040517f08c379a00000000000000000000000000000000000000000000000000000000081526004016123449061315d565b60405180910390fd5b612356816113e3565b15612396576040517f08c379a000000000000000000000000000000000000000000000000000000000815260040161238d9061303d565b60405180910390fd5b6123a2600083836120be565b6001600360008473ffffffffffffffffffffffffffffffffffffffff1673ffffffffffffffffffffffffffffffffffffffff16815260200190815260200160002060008282546123f29190613306565b92505081905550816002600083815260200190815260200160002060006101000a81548173ffffffffffffffffffffffffffffffffffffffff021916908373ffffffffffffffffffffffffffffffffffffffff160217905550808273ffffffffffffffffffffffffffffffffffffffff16600073ffffffffffffffffffffffffffffffffffffffff167fddf252ad1be2c89b69c2b068fc378daa952ba7f163c4a11628f55a4df523b3ef60405160405180910390a46124b3600083836120c3565b5050565b8280546124c3906134e3565b90600052602060002090601f0160209004810192826124e5576000855561252c565b82601f106124fe57805160ff191683800117855561252c565b8280016001018555821561252c579182015b8281111561252b578251825591602001919060010190612510565b5b509050612539919061253d565b5090565b5b8082111561255657600081600090555060010161253e565b5090565b600061256d6125688461327d565b613258565b90508281526020810184848401111561258557600080fd5b6125908482856134a1565b509392505050565b6000813590506125a781613d66565b92915050565b6000813590506125bc81613d7d565b92915050565b6000813590506125d181613d94565b92915050565b6000813590506125e681613dab565b92915050565b6000815190506125fb81613dab565b92915050565b600082601f83011261261257600080fd5b813561262284826020860161255a565b91505092915050565b60008135905061263a81613dc2565b92915050565b60006020828403121561265257600080fd5b600061266084828501612598565b91505092915050565b60006020828403121561267b57600080fd5b6000612689848285016125ad565b91505092915050565b600080604083850312156126a557600080fd5b60006126b385828601612598565b92505060206126c485828601612598565b9150509250929050565b6000806000606084860312156126e357600080fd5b60006126f186828701612598565b935050602061270286828701612598565b92505060406127138682870161262b565b9150509250925092565b6000806000806080858703121561273357600080fd5b600061274187828801612598565b945050602061275287828801612598565b93505060406127638782880161262b565b925050606085013567ffffffffffffffff81111561278057600080fd5b61278c87828801612601565b91505092959194509250565b600080604083850312156127ab57600080fd5b60006127b985828601612598565b92505060206127ca858286016125c2565b9150509250929050565b600080604083850312156127e757600080fd5b60006127f585828601612598565b92505060206128068582860161262b565b9150509250929050565b60006020828403121561282257600080fd5b6000612830848285016125d7565b91505092915050565b60006020828403121561284b57600080fd5b6000612859848285016125ec565b91505092915050565b60006020828403121561287457600080fd5b60006128828482850161262b565b91505092915050565b6128948161341b565b82525050565b6128a38161343f565b82525050565b60006128b4826132c3565b6128be81856132d9565b93506128ce8185602086016134b0565b6128d78161367c565b840191505092915050565b60006128ed826132ce565b6128f781856132ea565b93506129078185602086016134b0565b6129108161367c565b840191505092915050565b6000612926826132ce565b61293081856132fb565b93506129408185602086016134b0565b80840191505092915050565b60008154612959816134e3565b61296381866132fb565b9450600182166000811461297e576001811461298f576129c2565b60ff198316865281860193506129c2565b612998856132ae565b60005b838110156129ba5781548189015260018201915060208101905061299b565b838801955050505b50505092915050565b60006129d86032836132ea565b91506129e38261368d565b604082019050919050565b60006129fb6026836132ea565b9150612a06826136dc565b604082019050919050565b6000612a1e6025836132ea565b9150612a298261372b565b604082019050919050565b6000612a41601c836132ea565b9150612a4c8261377a565b602082019050919050565b6000612a646004836132fb565b9150612a6f826137a3565b600482019050919050565b6000612a876024836132ea565b9150612a92826137cc565b604082019050919050565b6000612aaa6019836132ea565b9150612ab58261381b565b602082019050919050565b6000612acd602c836132ea565b9150612ad882613844565b604082019050919050565b6000612af0600d836132fb565b9150612afb82613893565b600d82019050919050565b6000612b136021836132ea565b9150612b1e826138bc565b604082019050919050565b6000612b366038836132ea565b9150612b418261390b565b604082019050919050565b6000612b59602a836132ea565b9150612b648261395a565b604082019050919050565b6000612b7c6029836132ea565b9150612b87826139a9565b604082019050919050565b6000612b9f602e836132ea565b9150612baa826139f8565b604082019050919050565b6000612bc26002836132fb565b9150612bcd82613a47565b600282019050919050565b6000612be56020836132ea565b9150612bf082613a70565b602082019050919050565b6000612c086031836132ea565b9150612c1382613a99565b604082019050919050565b6000612c2b602c836132ea565b9150612c3682613ae8565b604082019050919050565b6000612c4e6020836132ea565b9150612c5982613b37565b602082019050919050565b6000612c716025836132fb565b9150612c7c82613b60565b602582019050919050565b6000612c94602f836132ea565b9150612c9f82613baf565b604082019050919050565b6000612cb7600a836132fb565b9150612cc282613bfe565b600a82019050919050565b6000612cda6028836132fb565b9150612ce582613c27565b602882019050919050565b6000612cfd6021836132ea565b9150612d0882613c76565b604082019050919050565b6000612d20601d836132fb565b9150612d2b82613cc5565b601d82019050919050565b6000612d436006836132fb565b9150612d4e82613cee565b600682019050919050565b6000612d666031836132ea565b9150612d7182613d17565b604082019050919050565b612d8581613497565b82525050565b6000612d97828461291b565b915081905092915050565b6000612dae828561291b565b9150612dba828461291b565b91508190509392505050565b6000612dd2828761294c565b9150612dde828661291b565b9150612dea828561294c565b9150612df6828461291b565b9150612e0182612ae3565b915081905095945050505050565b6000612e1a82612a57565b9150612e26828461291b565b915081905092915050565b6000612e3c82612caa565b9150612e48828661291b565b9150612e5382612c64565b9150612e5f828561291b565b9150612e6a82612ccd565b9150612e76828461291b565b9150612e8182612bb5565b9150819050949350505050565b6000612e9982612d13565b9150612ea5828461291b565b915081905092915050565b6000612ebb82612d36565b9150612ec7828461291b565b915081905092915050565b6000602082019050612ee7600083018461288b565b92915050565b6000608082019050612f02600083018761288b565b612f0f602083018661288b565b612f1c6040830185612d7c565b8181036060830152612f2e81846128a9565b905095945050505050565b6000604082019050612f4e600083018561288b565b612f5b6020830184612d7c565b9392505050565b6000602082019050612f77600083018461289a565b92915050565b60006020820190508181036000830152612f9781846128e2565b905092915050565b60006060820190508181036000830152612fb981866128e2565b9050612fc86020830185612d7c565b612fd5604083018461288b565b949350505050565b60006020820190508181036000830152612ff6816129cb565b9050919050565b60006020820190508181036000830152613016816129ee565b9050919050565b6000602082019050818103600083015261303681612a11565b9050919050565b6000602082019050818103600083015261305681612a34565b9050919050565b6000602082019050818103600083015261307681612a7a565b9050919050565b6000602082019050818103600083015261309681612a9d565b9050919050565b600060208201905081810360008301526130b681612ac0565b9050919050565b600060208201905081810360008301526130d681612b06565b9050919050565b600060208201905081810360008301526130f681612b29565b9050919050565b6000602082019050818103600083015261311681612b4c565b9050919050565b6000602082019050818103600083015261313681612b6f565b9050919050565b6000602082019050818103600083015261315681612b92565b9050919050565b6000602082019050818103600083015261317681612bd8565b9050919050565b6000602082019050818103600083015261319681612bfb565b9050919050565b600060208201905081810360008301526131b681612c1e565b9050919050565b600060208201905081810360008301526131d681612c41565b9050919050565b600060208201905081810360008301526131f681612c87565b9050919050565b6000602082019050818103600083015261321681612cf0565b9050919050565b6000602082019050818103600083015261323681612d59565b9050919050565b60006020820190506132526000830184612d7c565b92915050565b6000613262613273565b905061326e8282613515565b919050565b6000604051905090565b600067ffffffffffffffff8211156132985761329761364d565b5b6132a18261367c565b9050602081019050919050565b60008190508160005260206000209050919050565b600081519050919050565b600081519050919050565b600082825260208201905092915050565b600082825260208201905092915050565b600081905092915050565b600061331182613497565b915061331c83613497565b9250827fffffffffffffffffffffffffffffffffffffffffffffffffffffffffffffffff03821115613351576133506135c0565b5b828201905092915050565b600061336782613497565b915061337283613497565b925082613382576133816135ef565b5b828204905092915050565b600061339882613497565b91506133a383613497565b9250817fffffffffffffffffffffffffffffffffffffffffffffffffffffffffffffffff04831182151516156133dc576133db6135c0565b5b828202905092915050565b60006133f282613497565b91506133fd83613497565b9250828210156134105761340f6135c0565b5b828203905092915050565b600061342682613477565b9050919050565b600061343882613477565b9050919050565b60008115159050919050565b60007fffffffff0000000000000000000000000000000000000000000000000000000082169050919050565b600073ffffffffffffffffffffffffffffffffffffffff82169050919050565b6000819050919050565b82818337600083830152505050565b60005b838110156134ce5780820151818401526020810190506134b3565b838111156134dd576000848401525b50505050565b600060028204905060018216806134fb57607f821691505b6020821081141561350f5761350e61361e565b5b50919050565b61351e8261367c565b810181811067ffffffffffffffff8211171561353d5761353c61364d565b5b80604052505050565b600061355182613497565b91507fffffffffffffffffffffffffffffffffffffffffffffffffffffffffffffffff821415613584576135836135c0565b5b600182019050919050565b600061359a82613497565b91506135a583613497565b9250826135b5576135b46135ef565b5b828206905092915050565b7f4e487b7100000000000000000000000000000000000000000000000000000000600052601160045260246000fd5b7f4e487b7100000000000000000000000000000000000000000000000000000000600052601260045260246000fd5b7f4e487b7100000000000000000000000000000000000000000000000000000000600052602260045260246000fd5b7f4e487b7100000000000000000000000000000000000000000000000000000000600052604160045260246000fd5b6000601f19601f8301169050919050565b7f4552433732313a207472616e7366657220746f206e6f6e20455243373231526560008201527f63656976657220696d706c656d656e7465720000000000000000000000000000602082015250565b7f4f776e61626c653a206e6577206f776e657220697320746865207a65726f206160008201527f6464726573730000000000000000000000000000000000000000000000000000602082015250565b7f4552433732313a207472616e736665722066726f6d20696e636f72726563742060008201527f6f776e6572000000000000000000000000000000000000000000000000000000602082015250565b7f4552433732313a20746f6b656e20616c7265616479206d696e74656400000000600082015250565b7f4e414d4500000000000000000000000000000000000000000000000000000000600082015250565b7f4552433732313a207472616e7366657220746f20746865207a65726f2061646460008201527f7265737300000000000000000000000000000000000000000000000000000000602082015250565b7f4552433732313a20617070726f766520746f2063616c6c657200000000000000600082015250565b7f4552433732313a206f70657261746f7220717565727920666f72206e6f6e657860008201527f697374656e7420746f6b656e0000000000000000000000000000000000000000602082015250565b7f3c2f746578743e3c2f7376673e00000000000000000000000000000000000000600082015250565b7f4e6f7420656e6f756768204554482073656e743a20636865636b20707269636560008201527f2e00000000000000000000000000000000000000000000000000000000000000602082015250565b7f4552433732313a20617070726f76652063616c6c6572206973206e6f74206f7760008201527f6e6572206e6f7220617070726f76656420666f7220616c6c0000000000000000602082015250565b7f4552433732313a2062616c616e636520717565727920666f7220746865207a6560008201527f726f206164647265737300000000000000000000000000000000000000000000602082015250565b7f4552433732313a206f776e657220717565727920666f72206e6f6e657869737460008201527f656e7420746f6b656e0000000000000000000000000000000000000000000000602082015250565b7f45524337323155524953746f726167653a2055524920736574206f66206e6f6e60008201527f6578697374656e7420746f6b656e000000000000000000000000000000000000602082015250565b7f227d000000000000000000000000000000000000000000000000000000000000600082015250565b7f4552433732313a206d696e7420746f20746865207a65726f2061646472657373600082015250565b7f45524337323155524953746f726167653a2055524920717565727920666f722060008201527f6e6f6e6578697374656e7420746f6b656e000000000000000000000000000000602082015250565b7f4552433732313a20617070726f76656420717565727920666f72206e6f6e657860008201527f697374656e7420746f6b656e0000000000000000000000000000000000000000602082015250565b7f4f776e61626c653a2063616c6c6572206973206e6f7420746865206f776e6572600082015250565b7f222c20226465736372697074696f6e223a20224120446f706520476f6174206e60008201527f616d656420000000000000000000000000000000000000000000000000000000602082015250565b7f4552433732314d657461646174613a2055524920717565727920666f72206e6f60008201527f6e6578697374656e7420746f6b656e0000000000000000000000000000000000602082015250565b7f7b226e616d65223a202200000000000000000000000000000000000000000000600082015250565b7f2e222c2022696d616765223a2022646174613a696d6167652f7376672b786d6c60008201527f3b6261736536342c000000000000000000000000000000000000000000000000602082015250565b7f4552433732313a20617070726f76616c20746f2063757272656e74206f776e6560008201527f7200000000000000000000000000000000000000000000000000000000000000602082015250565b7f646174613a6170706c69636174696f6e2f6a736f6e3b6261736536342c000000600082015250565b7f434f4c4f55520000000000000000000000000000000000000000000000000000600082015250565b7f4552433732313a207472616e736665722063616c6c6572206973206e6f74206f60008201527f776e6572206e6f7220617070726f766564000000000000000000000000000000602082015250565b613d6f8161341b565b8114613d7a57600080fd5b50565b613d868161342d565b8114613d9157600080fd5b50565b613d9d8161343f565b8114613da857600080fd5b50565b613db48161344b565b8114613dbf57600080fd5b50565b613dcb81613497565b8114613dd657600080fd5b5056fe416e204e465420772f20494420257320686173206265656e206d696e74656420746f2025734142434445464748494a4b4c4d4e4f505152535455565758595a6162636465666768696a6b6c6d6e6f707172737475767778797a303132333435363738392b2fa2646970667358221220208a114a71e47fbb0c4826a68fa5b98dabdbeb54dc9bbb7a84e4955ec09b1e6964736f6c634300080100333c73766720786d6c6e733d27687474703a2f2f7777772e77332e6f72672f323030302f73766727207072657365727665417370656374526174696f3d27784d696e594d696e206d656574272076696577426f783d273020302033353020333530273e3c7374796c653e2e62617365207b2066696c6c3a2077686974653b20666f6e742d66616d696c793a2073657269663b20666f6e742d73697a653a20323470783b207d3c2f7374796c653e3c726563742077696474683d273130302527206865696768743d2731303025272066696c6c3d2727202f3e3c7465787420783d273530252720793d273530252720636c6173733d27626173652720646f6d696e616e742d626173656c696e653d276d6964646c652720746578742d616e63686f723d276d6964646c65273e446f7065476f617454686973206973206d7920446f706520476f6174204e465420636f6e74726163742e20576f616821",
  "linkReferences": {},
  "deployedLinkReferences": {}
}