{
  "_format": "hh-sol-artifact-1",
  "contractName": "NFTMinter",
  "sourceName": "contracts/NFTMinter.sol",
  "abi": [
    {
      "inputs": [],
      "stateMutability": "nonpayable",
      "type": "constructor"
    },
    {
      "anonymous": false,
      "inputs": [
        {
          "indexed": true,
          "internalType": "address",
          "name": "owner",
          "type": "address"
        },
        {
          "indexed": true,
          "internalType": "address",
          "name": "approved",
          "type": "address"
        },
        {
          "indexed": true,
          "internalType": "uint256",
          "name": "tokenId",
          "type": "uint256"
        }
      ],
      "name": "Approval",
      "type": "event"
    },
    {
      "anonymous": false,
      "inputs": [
        {
          "indexed": true,
          "internalType": "address",
          "name": "owner",
          "type": "address"
        },
        {
          "indexed": true,
          "internalType": "address",
          "name": "operator",
          "type": "address"
        },
        {
          "indexed": false,
          "internalType": "bool",
          "name": "approved",
          "type": "bool"
        }
      ],
      "name": "ApprovalForAll",
      "type": "event"
    },
    {
      "anonymous": false,
      "inputs": [
        {
          "indexed": false,
          "internalType": "address",
          "name": "sender",
          "type": "address"
        },
        {
          "indexed": false,
          "internalType": "uint256",
          "name": "tokenId",
          "type": "uint256"
        }
      ],
      "name": "NFTMinted",
      "type": "event"
    },
    {
      "anonymous": false,
      "inputs": [
        {
          "indexed": true,
          "internalType": "address",
          "name": "from",
          "type": "address"
        },
        {
          "indexed": true,
          "internalType": "address",
          "name": "to",
          "type": "address"
        },
        {
          "indexed": true,
          "internalType": "uint256",
          "name": "tokenId",
          "type": "uint256"
        }
      ],
      "name": "Transfer",
      "type": "event"
    },
    {
      "inputs": [
        {
          "internalType": "address",
          "name": "to",
          "type": "address"
        },
        {
          "internalType": "uint256",
          "name": "tokenId",
          "type": "uint256"
        }
      ],
      "name": "approve",
      "outputs": [],
      "stateMutability": "nonpayable",
      "type": "function"
    },
    {
      "inputs": [
        {
          "internalType": "address",
          "name": "owner",
          "type": "address"
        }
      ],
      "name": "balanceOf",
      "outputs": [
        {
          "internalType": "uint256",
          "name": "",
          "type": "uint256"
        }
      ],
      "stateMutability": "view",
      "type": "function"
    },
    {
      "inputs": [
        {
          "internalType": "uint256",
          "name": "tokenId",
          "type": "uint256"
        }
      ],
      "name": "getApproved",
      "outputs": [
        {
          "internalType": "address",
          "name": "",
          "type": "address"
        }
      ],
      "stateMutability": "view",
      "type": "function"
    },
    {
      "inputs": [
        {
          "internalType": "address",
          "name": "owner",
          "type": "address"
        },
        {
          "internalType": "address",
          "name": "operator",
          "type": "address"
        }
      ],
      "name": "isApprovedForAll",
      "outputs": [
        {
          "internalType": "bool",
          "name": "",
          "type": "bool"
        }
      ],
      "stateMutability": "view",
      "type": "function"
    },
    {
      "inputs": [],
      "name": "makeDGNFT",
      "outputs": [],
      "stateMutability": "nonpayable",
      "type": "function"
    },
    {
      "inputs": [],
      "name": "name",
      "outputs": [
        {
          "internalType": "string",
          "name": "",
          "type": "string"
        }
      ],
      "stateMutability": "view",
      "type": "function"
    },
    {
      "inputs": [
        {
          "internalType": "uint256",
          "name": "tokenId",
          "type": "uint256"
        }
      ],
      "name": "ownerOf",
      "outputs": [
        {
          "internalType": "address",
          "name": "",
          "type": "address"
        }
      ],
      "stateMutability": "view",
      "type": "function"
    },
    {
      "inputs": [
        {
          "internalType": "uint256",
          "name": "tokenId",
          "type": "uint256"
        }
      ],
      "name": "randomColour",
      "outputs": [
        {
          "internalType": "string",
          "name": "",
          "type": "string"
        }
      ],
      "stateMutability": "view",
      "type": "function"
    },
    {
      "inputs": [
        {
          "internalType": "uint256",
          "name": "tokenId",
          "type": "uint256"
        }
      ],
      "name": "randomName",
      "outputs": [
        {
          "internalType": "string",
          "name": "",
          "type": "string"
        }
      ],
      "stateMutability": "view",
      "type": "function"
    },
    {
      "inputs": [
        {
          "internalType": "address",
          "name": "from",
          "type": "address"
        },
        {
          "internalType": "address",
          "name": "to",
          "type": "address"
        },
        {
          "internalType": "uint256",
          "name": "tokenId",
          "type": "uint256"
        }
      ],
      "name": "safeTransferFrom",
      "outputs": [],
      "stateMutability": "nonpayable",
      "type": "function"
    },
    {
      "inputs": [
        {
          "internalType": "address",
          "name": "from",
          "type": "address"
        },
        {
          "internalType": "address",
          "name": "to",
          "type": "address"
        },
        {
          "internalType": "uint256",
          "name": "tokenId",
          "type": "uint256"
        },
        {
          "internalType": "bytes",
          "name": "_data",
          "type": "bytes"
        }
      ],
      "name": "safeTransferFrom",
      "outputs": [],
      "stateMutability": "nonpayable",
      "type": "function"
    },
    {
      "inputs": [
        {
          "internalType": "address",
          "name": "operator",
          "type": "address"
        },
        {
          "internalType": "bool",
          "name": "approved",
          "type": "bool"
        }
      ],
      "name": "setApprovalForAll",
      "outputs": [],
      "stateMutability": "nonpayable",
      "type": "function"
    },
    {
      "inputs": [
        {
          "internalType": "bytes4",
          "name": "interfaceId",
          "type": "bytes4"
        }
      ],
      "name": "supportsInterface",
      "outputs": [
        {
          "internalType": "bool",
          "name": "",
          "type": "bool"
        }
      ],
      "stateMutability": "view",
      "type": "function"
    },
    {
      "inputs": [],
      "name": "symbol",
      "outputs": [
        {
          "internalType": "string",
          "name": "",
          "type": "string"
        }
      ],
      "stateMutability": "view",
      "type": "function"
    },
    {
      "inputs": [
        {
          "internalType": "uint256",
          "name": "tokenId",
          "type": "uint256"
        }
      ],
      "name": "tokenURI",
      "outputs": [
        {
          "internalType": "string",
          "name": "",
          "type": "string"
        }
      ],
      "stateMutability": "view",
      "type": "function"
    },
    {
      "inputs": [
        {
          "internalType": "address",
          "name": "from",
          "type": "address"
        },
        {
          "internalType": "address",
          "name": "to",
          "type": "address"
        },
        {
          "internalType": "uint256",
          "name": "tokenId",
          "type": "uint256"
        }
      ],
      "name": "transferFrom",
      "outputs": [],
      "stateMutability": "nonpayable",
      "type": "function"
    }
  ],
  "bytecode": "0x608060405260405180610100016040528060d381526020016200442760d39139600890805190602001906200003692919062000977565b506040518060800160405280605f8152602001620044fa605f9139600990805190602001906200006892919062000977565b506040518061020001604052806040518060400160405280600681526020017f416c66726564000000000000000000000000000000000000000000000000000081525081526020016040518060400160405280600881526020017f4265727472616e6400000000000000000000000000000000000000000000000081525081526020016040518060400160405280600781526020017f436861726c65730000000000000000000000000000000000000000000000000081525081526020016040518060400160405280600681526020017f44656e6e6973000000000000000000000000000000000000000000000000000081525081526020016040518060400160405280600681526020017f457567656e65000000000000000000000000000000000000000000000000000081525081526020016040518060400160405280600981526020017f467269656472696368000000000000000000000000000000000000000000000081525081526020016040518060400160405280600681526020017f47656f726765000000000000000000000000000000000000000000000000000081525081526020016040518060400160405280600481526020017f48616e730000000000000000000000000000000000000000000000000000000081525081526020016040518060400160405280600481526020017f4976616e0000000000000000000000000000000000000000000000000000000081525081526020016040518060400160405280600681526020017f4a756c697573000000000000000000000000000000000000000000000000000081525081526020016040518060400160405280600581526020017f4b6c61757300000000000000000000000000000000000000000000000000000081525081526020016040518060400160405280600681526020017f4c7564776967000000000000000000000000000000000000000000000000000081525081526020016040518060400160405280600781526020017f4d616e667265640000000000000000000000000000000000000000000000000081525081526020016040518060400160405280600481526020017f4e696c730000000000000000000000000000000000000000000000000000000081525081526020016040518060400160405280600481526020017f4f74746f0000000000000000000000000000000000000000000000000000000081525081526020016040518060400160405280600481526020017f5061756c00000000000000000000000000000000000000000000000000000000815250815250600a9060106200043592919062000a08565b50604051806101e001604052806040518060400160405280600781526020017f6372696d736f6e0000000000000000000000000000000000000000000000000081525081526020016040518060400160405280600d81526020017f6461726b736c617465626c75650000000000000000000000000000000000000081525081526020016040518060400160405280600981526020017f6461726b677265656e000000000000000000000000000000000000000000000081525081526020016040518060400160405280600981526020017f6275726c79776f6f64000000000000000000000000000000000000000000000081525081526020016040518060400160405280600581526020017f636f72616c00000000000000000000000000000000000000000000000000000081525081526020016040518060400160405280600c81526020017f6d69646e69676874626c7565000000000000000000000000000000000000000081525081526020016040518060400160405280600f81526020017f6d656469756d76696f6c6574726564000000000000000000000000000000000081525081526020016040518060400160405280600981526020017f6c69676874626c7565000000000000000000000000000000000000000000000081525081526020016040518060400160405280600881526020017f736561677265656e00000000000000000000000000000000000000000000000081525081526020016040518060400160405280600981526020017f737465656c626c7565000000000000000000000000000000000000000000000081525081526020016040518060400160405280601081526020017f6d656469756d617175616d6172696e650000000000000000000000000000000081525081526020016040518060400160405280600481526020017f706c756d0000000000000000000000000000000000000000000000000000000081525081526020016040518060400160405280600681526020017f7369656e6e61000000000000000000000000000000000000000000000000000081525081526020016040518060400160405280600981526020017f6c696d65677265656e000000000000000000000000000000000000000000000081525081526020016040518060400160405280600681526020017f6f72636869640000000000000000000000000000000000000000000000000000815250815250600b90600f620007c792919062000a6f565b50348015620007d557600080fd5b506040518060400160405280600981526020017f446f7065476f61747300000000000000000000000000000000000000000000008152506040518060400160405280600481526020017f445047540000000000000000000000000000000000000000000000000000000081525081600090805190602001906200085a92919062000977565b5080600190805190602001906200087392919062000977565b505050620008a56040518060600160405280602881526020016200455960289139620008ab60201b62000eb01760201c565b62000c90565b6200094b81604051602401620008c2919062000ba4565b6040516020818303038152906040527f41304fac000000000000000000000000000000000000000000000000000000007bffffffffffffffffffffffffffffffffffffffffffffffffffffffff19166020820180517bffffffffffffffffffffffffffffffffffffffffffffffffffffffff83818316178352505050506200094e60201b60201c565b50565b60008151905060006a636f6e736f6c652e6c6f679050602083016000808483855afa5050505050565b828054620009859062000c1a565b90600052602060002090601f016020900481019282620009a95760008555620009f5565b82601f10620009c457805160ff1916838001178555620009f5565b82800160010185558215620009f5579182015b82811115620009f4578251825591602001919060010190620009d7565b5b50905062000a04919062000ad6565b5090565b82805482825590600052602060002090810192821562000a5c579160200282015b8281111562000a5b57825182908051906020019062000a4a92919062000977565b509160200191906001019062000a29565b5b50905062000a6b919062000af5565b5090565b82805482825590600052602060002090810192821562000ac3579160200282015b8281111562000ac257825182908051906020019062000ab192919062000977565b509160200191906001019062000a90565b5b50905062000ad2919062000af5565b5090565b5b8082111562000af157600081600090555060010162000ad7565b5090565b5b8082111562000b19576000818162000b0f919062000b1d565b5060010162000af6565b5090565b50805462000b2b9062000c1a565b6000825580601f1062000b3f575062000b60565b601f01602090049060005260206000209081019062000b5f919062000ad6565b5b50565b600062000b708262000bc8565b62000b7c818562000bd3565b935062000b8e81856020860162000be4565b62000b998162000c7f565b840191505092915050565b6000602082019050818103600083015262000bc0818462000b63565b905092915050565b600081519050919050565b600082825260208201905092915050565b60005b8381101562000c0457808201518184015260208101905062000be7565b8381111562000c14576000848401525b50505050565b6000600282049050600182168062000c3357607f821691505b6020821081141562000c4a5762000c4962000c50565b5b50919050565b7f4e487b7100000000000000000000000000000000000000000000000000000000600052602260045260246000fd5b6000601f19601f8301169050919050565b6137878062000ca06000396000f3fe608060405234801561001057600080fd5b50600436106101005760003560e01c806370a0823111610097578063b88d4fde11610066578063b88d4fde146102d1578063c87b56dd146102ed578063e985e9c51461031d578063fe74d8061461034d57610100565b806370a08231146102375780637ae647561461026757806395d89b4114610297578063a22cb465146102b557610100565b806323b872dd116100d357806323b872dd1461019f57806342842e0e146101bb5780634ebd91ab146101d75780636352211e1461020757610100565b806301ffc9a71461010557806306fdde0314610135578063081812fc14610153578063095ea7b314610183575b600080fd5b61011f600480360381019061011a91906122dc565b610357565b60405161012c91906129c5565b60405180910390f35b61013d610439565b60405161014a91906129e0565b60405180910390f35b61016d6004803603810190610168919061232e565b6104cb565b60405161017a9190612935565b60405180910390f35b61019d600480360381019061019891906122a0565b610550565b005b6101b960048036038101906101b4919061219a565b610668565b005b6101d560048036038101906101d0919061219a565b6106c8565b005b6101f160048036038101906101ec919061232e565b6106e8565b6040516101fe91906129e0565b60405180910390f35b610221600480360381019061021c919061232e565b610806565b60405161022e9190612935565b60405180910390f35b610251600480360381019061024c9190612135565b6108b8565b60405161025e9190612c40565b60405180910390f35b610281600480360381019061027c919061232e565b610970565b60405161028e91906129e0565b60405180910390f35b61029f610a8e565b6040516102ac91906129e0565b60405180910390f35b6102cf60048036038101906102ca9190612264565b610b20565b005b6102eb60048036038101906102e691906121e9565b610b36565b005b6103076004803603810190610302919061232e565b610b98565b60405161031491906129e0565b60405180910390f35b6103376004803603810190610332919061215e565b610cea565b60405161034491906129c5565b60405180910390f35b610355610d7e565b005b60007f80ac58cd000000000000000000000000000000000000000000000000000000007bffffffffffffffffffffffffffffffffffffffffffffffffffffffff1916827bffffffffffffffffffffffffffffffffffffffffffffffffffffffff1916148061042257507f5b5e139f000000000000000000000000000000000000000000000000000000007bffffffffffffffffffffffffffffffffffffffffffffffffffffffff1916827bffffffffffffffffffffffffffffffffffffffffffffffffffffffff1916145b80610432575061043182610f49565b5b9050919050565b60606000805461044890612ed4565b80601f016020809104026020016040519081016040528092919081815260200182805461047490612ed4565b80156104c15780601f10610496576101008083540402835291602001916104c1565b820191906000526020600020905b8154815290600101906020018083116104a457829003601f168201915b5050505050905090565b60006104d682610fb3565b610515576040517f08c379a000000000000000000000000000000000000000000000000000000000815260040161050c90612bc0565b60405180910390fd5b6004600083815260200190815260200160002060009054906101000a900473ffffffffffffffffffffffffffffffffffffffff169050919050565b600061055b82610806565b90508073ffffffffffffffffffffffffffffffffffffffff168373ffffffffffffffffffffffffffffffffffffffff1614156105cc576040517f08c379a00000000000000000000000000000000000000000000000000000000081526004016105c390612c00565b60405180910390fd5b8073ffffffffffffffffffffffffffffffffffffffff166105eb61101f565b73ffffffffffffffffffffffffffffffffffffffff16148061061a57506106198161061461101f565b610cea565b5b610659576040517f08c379a000000000000000000000000000000000000000000000000000000000815260040161065090612b00565b60405180910390fd5b6106638383611027565b505050565b61067961067361101f565b826110e0565b6106b8576040517f08c379a00000000000000000000000000000000000000000000000000000000081526004016106af90612c20565b60405180910390fd5b6106c38383836111be565b505050565b6106e383838360405180602001604052806000815250610b36565b505050565b6060600061071c6106f884611425565b6040516020016107089190612872565b6040516020818303038152906040526115d2565b9050600a805490508161072f9190612f80565b9050600a818154811061076b577f4e487b7100000000000000000000000000000000000000000000000000000000600052603260045260246000fd5b90600052602060002001805461078090612ed4565b80601f01602080910402602001604051908101604052809291908181526020018280546107ac90612ed4565b80156107f95780601f106107ce576101008083540402835291602001916107f9565b820191906000526020600020905b8154815290600101906020018083116107dc57829003601f168201915b5050505050915050919050565b6000806002600084815260200190815260200160002060009054906101000a900473ffffffffffffffffffffffffffffffffffffffff169050600073ffffffffffffffffffffffffffffffffffffffff168173ffffffffffffffffffffffffffffffffffffffff1614156108af576040517f08c379a00000000000000000000000000000000000000000000000000000000081526004016108a690612b40565b60405180910390fd5b80915050919050565b60008073ffffffffffffffffffffffffffffffffffffffff168273ffffffffffffffffffffffffffffffffffffffff161415610929576040517f08c379a000000000000000000000000000000000000000000000000000000000815260040161092090612b20565b60405180910390fd5b600360008373ffffffffffffffffffffffffffffffffffffffff1673ffffffffffffffffffffffffffffffffffffffff168152602001908152602001600020549050919050565b606060006109a461098084611425565b6040516020016109909190612913565b6040516020818303038152906040526115d2565b9050600b80549050816109b79190612f80565b9050600b81815481106109f3577f4e487b7100000000000000000000000000000000000000000000000000000000600052603260045260246000fd5b906000526020600020018054610a0890612ed4565b80601f0160208091040260200160405190810160405280929190818152602001828054610a3490612ed4565b8015610a815780601f10610a5657610100808354040283529160200191610a81565b820191906000526020600020905b815481529060010190602001808311610a6457829003601f168201915b5050505050915050919050565b606060018054610a9d90612ed4565b80601f0160208091040260200160405190810160405280929190818152602001828054610ac990612ed4565b8015610b165780601f10610aeb57610100808354040283529160200191610b16565b820191906000526020600020905b815481529060010190602001808311610af957829003601f168201915b5050505050905090565b610b32610b2b61101f565b8383611605565b5050565b610b47610b4161101f565b836110e0565b610b86576040517f08c379a0000000000000000000000000000000000000000000000000000000008152600401610b7d90612c20565b60405180910390fd5b610b9284848484611772565b50505050565b6060610ba382610fb3565b610be2576040517f08c379a0000000000000000000000000000000000000000000000000000000008152600401610bd990612ba0565b60405180910390fd5b6000600660008481526020019081526020016000208054610c0290612ed4565b80601f0160208091040260200160405190810160405280929190818152602001828054610c2e90612ed4565b8015610c7b5780601f10610c5057610100808354040283529160200191610c7b565b820191906000526020600020905b815481529060010190602001808311610c5e57829003601f168201915b505050505090506000610c8c6117ce565b9050600081511415610ca2578192505050610ce5565b600082511115610cd7578082604051602001610cbf929190612805565b60405160208183030381529060405292505050610ce5565b610ce0846117e5565b925050505b919050565b6000600560008473ffffffffffffffffffffffffffffffffffffffff1673ffffffffffffffffffffffffffffffffffffffff16815260200190815260200160002060008373ffffffffffffffffffffffffffffffffffffffff1673ffffffffffffffffffffffffffffffffffffffff16815260200190815260200160002060009054906101000a900460ff16905092915050565b6000610d8a600761188c565b90506000610d97826106e8565b90506000610da483610970565b90506000600882600985604051602001610dc19493929190612829565b60405160208183030381529060405290506000610e088485610de28561189a565b604051602001610df493929190612894565b60405160208183030381529060405261189a565b9050600081604051602001610e1d91906128f1565b6040516020818303038152906040529050610e383387611a58565b610e428682611a76565b610e4c6007611aea565b610e6f6040518060600160405280602581526020016136ed602591398733611b00565b7f4cc0a9c4a99ddc700de1af2c9f916a7cbfdb71f14801ccff94061ad1ef8a80403387604051610ea092919061299c565b60405180910390a1505050505050565b610f4681604051602401610ec491906129e0565b6040516020818303038152906040527f41304fac000000000000000000000000000000000000000000000000000000007bffffffffffffffffffffffffffffffffffffffffffffffffffffffff19166020820180517bffffffffffffffffffffffffffffffffffffffffffffffffffffffff8381831617835250505050611b9f565b50565b60007f01ffc9a7000000000000000000000000000000000000000000000000000000007bffffffffffffffffffffffffffffffffffffffffffffffffffffffff1916827bffffffffffffffffffffffffffffffffffffffffffffffffffffffff1916149050919050565b60008073ffffffffffffffffffffffffffffffffffffffff166002600084815260200190815260200160002060009054906101000a900473ffffffffffffffffffffffffffffffffffffffff1673ffffffffffffffffffffffffffffffffffffffff1614159050919050565b600033905090565b816004600083815260200190815260200160002060006101000a81548173ffffffffffffffffffffffffffffffffffffffff021916908373ffffffffffffffffffffffffffffffffffffffff160217905550808273ffffffffffffffffffffffffffffffffffffffff1661109a83610806565b73ffffffffffffffffffffffffffffffffffffffff167f8c5be1e5ebec7d5bd14f71427d1e84f3dd0314c0f7b2291e5b200ac8c7c3b92560405160405180910390a45050565b60006110eb82610fb3565b61112a576040517f08c379a000000000000000000000000000000000000000000000000000000000815260040161112190612ae0565b60405180910390fd5b600061113583610806565b90508073ffffffffffffffffffffffffffffffffffffffff168473ffffffffffffffffffffffffffffffffffffffff1614806111a457508373ffffffffffffffffffffffffffffffffffffffff1661118c846104cb565b73ffffffffffffffffffffffffffffffffffffffff16145b806111b557506111b48185610cea565b5b91505092915050565b8273ffffffffffffffffffffffffffffffffffffffff166111de82610806565b73ffffffffffffffffffffffffffffffffffffffff1614611234576040517f08c379a000000000000000000000000000000000000000000000000000000000815260040161122b90612a60565b60405180910390fd5b600073ffffffffffffffffffffffffffffffffffffffff168273ffffffffffffffffffffffffffffffffffffffff1614156112a4576040517f08c379a000000000000000000000000000000000000000000000000000000000815260040161129b90612aa0565b60405180910390fd5b6112af838383611bc8565b6112ba600082611027565b6001600360008573ffffffffffffffffffffffffffffffffffffffff1673ffffffffffffffffffffffffffffffffffffffff168152602001908152602001600020600082825461130a9190612dea565b925050819055506001600360008473ffffffffffffffffffffffffffffffffffffffff1673ffffffffffffffffffffffffffffffffffffffff16815260200190815260200160002060008282546113619190612d09565b92505081905550816002600083815260200190815260200160002060006101000a81548173ffffffffffffffffffffffffffffffffffffffff021916908373ffffffffffffffffffffffffffffffffffffffff160217905550808273ffffffffffffffffffffffffffffffffffffffff168473ffffffffffffffffffffffffffffffffffffffff167fddf252ad1be2c89b69c2b068fc378daa952ba7f163c4a11628f55a4df523b3ef60405160405180910390a4611420838383611bcd565b505050565b6060600082141561146d576040518060400160405280600181526020017f300000000000000000000000000000000000000000000000000000000000000081525090506115cd565b600082905060005b6000821461149f57808061148890612f37565b915050600a826114989190612d5f565b9150611475565b60008167ffffffffffffffff8111156114e1577f4e487b7100000000000000000000000000000000000000000000000000000000600052604160045260246000fd5b6040519080825280601f01601f1916602001820160405280156115135781602001600182028036833780820191505090505b5090505b600085146115c65760018261152c9190612dea565b9150600a8561153b9190612f80565b60306115479190612d09565b60f81b818381518110611583577f4e487b7100000000000000000000000000000000000000000000000000000000600052603260045260246000fd5b60200101907effffffffffffffffffffffffffffffffffffffffffffffffffffffffffffff1916908160001a905350600a856115bf9190612d5f565b9450611517565b8093505050505b919050565b6000816040516020016115e591906127ee565b6040516020818303038152906040528051906020012060001c9050919050565b8173ffffffffffffffffffffffffffffffffffffffff168373ffffffffffffffffffffffffffffffffffffffff161415611674576040517f08c379a000000000000000000000000000000000000000000000000000000000815260040161166b90612ac0565b60405180910390fd5b80600560008573ffffffffffffffffffffffffffffffffffffffff1673ffffffffffffffffffffffffffffffffffffffff16815260200190815260200160002060008473ffffffffffffffffffffffffffffffffffffffff1673ffffffffffffffffffffffffffffffffffffffff16815260200190815260200160002060006101000a81548160ff0219169083151502179055508173ffffffffffffffffffffffffffffffffffffffff168373ffffffffffffffffffffffffffffffffffffffff167f17307eab39ab6107e8899845ad3d59bd9653f200f220920489ca2b5937696c318360405161176591906129c5565b60405180910390a3505050565b61177d8484846111be565b61178984848484611bd2565b6117c8576040517f08c379a00000000000000000000000000000000000000000000000000000000081526004016117bf90612a40565b60405180910390fd5b50505050565b606060405180602001604052806000815250905090565b60606117f082610fb3565b61182f576040517f08c379a000000000000000000000000000000000000000000000000000000000815260040161182690612be0565b60405180910390fd5b60006118396117ce565b905060008151116118595760405180602001604052806000815250611884565b8061186384611425565b604051602001611874929190612805565b6040516020818303038152906040525b915050919050565b600081600001549050919050565b606060008251905060008114156118c35760405180602001604052806000815250915050611a53565b600060036002836118d49190612d09565b6118de9190612d5f565b60046118ea9190612d90565b905060006020826118fb9190612d09565b67ffffffffffffffff81111561193a577f4e487b7100000000000000000000000000000000000000000000000000000000600052604160045260246000fd5b6040519080825280601f01601f19166020018201604052801561196c5781602001600182028036833780820191505090505b5090506000604051806060016040528060408152602001613712604091399050600181016020830160005b86811015611a105760038101905062ffffff818a015116603f8160121c168401518060081b905060ff603f83600c1c1686015116810190508060081b905060ff603f8360061c1686015116810190508060081b905060ff603f831686015116810190508060e01b90508084526004840193505050611997565b506003860660018114611a2a5760028114611a3a57611a45565b613d3d60f01b6002830352611a45565b603d60f81b60018303525b508484525050819450505050505b919050565b611a72828260405180602001604052806000815250611d69565b5050565b611a7f82610fb3565b611abe576040517f08c379a0000000000000000000000000000000000000000000000000000000008152600401611ab590612b60565b60405180910390fd5b80600660008481526020019081526020016000209080519060200190611ae5929190611fc1565b505050565b6001816000016000828254019250508190555050565b611b9a838383604051602401611b1893929190612a02565b6040516020818303038152906040527fe3849f79000000000000000000000000000000000000000000000000000000007bffffffffffffffffffffffffffffffffffffffffffffffffffffffff19166020820180517bffffffffffffffffffffffffffffffffffffffffffffffffffffffff8381831617835250505050611b9f565b505050565b60008151905060006a636f6e736f6c652e6c6f679050602083016000808483855afa5050505050565b505050565b505050565b6000611bf38473ffffffffffffffffffffffffffffffffffffffff16611dc4565b15611d5c578373ffffffffffffffffffffffffffffffffffffffff1663150b7a02611c1c61101f565b8786866040518563ffffffff1660e01b8152600401611c3e9493929190612950565b602060405180830381600087803b158015611c5857600080fd5b505af1925050508015611c8957506040513d601f19601f82011682018060405250810190611c869190612305565b60015b611d0c573d8060008114611cb9576040519150601f19603f3d011682016040523d82523d6000602084013e611cbe565b606091505b50600081511415611d04576040517f08c379a0000000000000000000000000000000000000000000000000000000008152600401611cfb90612a40565b60405180910390fd5b805181602001fd5b63150b7a0260e01b7bffffffffffffffffffffffffffffffffffffffffffffffffffffffff1916817bffffffffffffffffffffffffffffffffffffffffffffffffffffffff191614915050611d61565b600190505b949350505050565b611d738383611de7565b611d806000848484611bd2565b611dbf576040517f08c379a0000000000000000000000000000000000000000000000000000000008152600401611db690612a40565b60405180910390fd5b505050565b6000808273ffffffffffffffffffffffffffffffffffffffff163b119050919050565b600073ffffffffffffffffffffffffffffffffffffffff168273ffffffffffffffffffffffffffffffffffffffff161415611e57576040517f08c379a0000000000000000000000000000000000000000000000000000000008152600401611e4e90612b80565b60405180910390fd5b611e6081610fb3565b15611ea0576040517f08c379a0000000000000000000000000000000000000000000000000000000008152600401611e9790612a80565b60405180910390fd5b611eac60008383611bc8565b6001600360008473ffffffffffffffffffffffffffffffffffffffff1673ffffffffffffffffffffffffffffffffffffffff1681526020019081526020016000206000828254611efc9190612d09565b92505081905550816002600083815260200190815260200160002060006101000a81548173ffffffffffffffffffffffffffffffffffffffff021916908373ffffffffffffffffffffffffffffffffffffffff160217905550808273ffffffffffffffffffffffffffffffffffffffff16600073ffffffffffffffffffffffffffffffffffffffff167fddf252ad1be2c89b69c2b068fc378daa952ba7f163c4a11628f55a4df523b3ef60405160405180910390a4611fbd60008383611bcd565b5050565b828054611fcd90612ed4565b90600052602060002090601f016020900481019282611fef5760008555612036565b82601f1061200857805160ff1916838001178555612036565b82800160010185558215612036579182015b8281111561203557825182559160200191906001019061201a565b5b5090506120439190612047565b5090565b5b80821115612060576000816000905550600101612048565b5090565b600061207761207284612c80565b612c5b565b90508281526020810184848401111561208f57600080fd5b61209a848285612e92565b509392505050565b6000813590506120b181613690565b92915050565b6000813590506120c6816136a7565b92915050565b6000813590506120db816136be565b92915050565b6000815190506120f0816136be565b92915050565b600082601f83011261210757600080fd5b8135612117848260208601612064565b91505092915050565b60008135905061212f816136d5565b92915050565b60006020828403121561214757600080fd5b6000612155848285016120a2565b91505092915050565b6000806040838503121561217157600080fd5b600061217f858286016120a2565b9250506020612190858286016120a2565b9150509250929050565b6000806000606084860312156121af57600080fd5b60006121bd868287016120a2565b93505060206121ce868287016120a2565b92505060406121df86828701612120565b9150509250925092565b600080600080608085870312156121ff57600080fd5b600061220d878288016120a2565b945050602061221e878288016120a2565b935050604061222f87828801612120565b925050606085013567ffffffffffffffff81111561224c57600080fd5b612258878288016120f6565b91505092959194509250565b6000806040838503121561227757600080fd5b6000612285858286016120a2565b9250506020612296858286016120b7565b9150509250929050565b600080604083850312156122b357600080fd5b60006122c1858286016120a2565b92505060206122d285828601612120565b9150509250929050565b6000602082840312156122ee57600080fd5b60006122fc848285016120cc565b91505092915050565b60006020828403121561231757600080fd5b6000612325848285016120e1565b91505092915050565b60006020828403121561234057600080fd5b600061234e84828501612120565b91505092915050565b61236081612e1e565b82525050565b61236f81612e30565b82525050565b600061238082612cc6565b61238a8185612cdc565b935061239a818560208601612ea1565b6123a38161306d565b840191505092915050565b60006123b982612cd1565b6123c38185612ced565b93506123d3818560208601612ea1565b6123dc8161306d565b840191505092915050565b60006123f282612cd1565b6123fc8185612cfe565b935061240c818560208601612ea1565b80840191505092915050565b6000815461242581612ed4565b61242f8186612cfe565b9450600182166000811461244a576001811461245b5761248e565b60ff1983168652818601935061248e565b61246485612cb1565b60005b8381101561248657815481890152600182019150602081019050612467565b838801955050505b50505092915050565b60006124a4603283612ced565b91506124af8261307e565b604082019050919050565b60006124c7602583612ced565b91506124d2826130cd565b604082019050919050565b60006124ea601c83612ced565b91506124f58261311c565b602082019050919050565b600061250d600483612cfe565b915061251882613145565b600482019050919050565b6000612530602483612ced565b915061253b8261316e565b604082019050919050565b6000612553601983612ced565b915061255e826131bd565b602082019050919050565b6000612576602c83612ced565b9150612581826131e6565b604082019050919050565b6000612599600d83612cfe565b91506125a482613235565b600d82019050919050565b60006125bc603883612ced565b91506125c78261325e565b604082019050919050565b60006125df602a83612ced565b91506125ea826132ad565b604082019050919050565b6000612602602983612ced565b915061260d826132fc565b604082019050919050565b6000612625602e83612ced565b91506126308261334b565b604082019050919050565b6000612648600283612cfe565b91506126538261339a565b600282019050919050565b600061266b602083612ced565b9150612676826133c3565b602082019050919050565b600061268e603183612ced565b9150612699826133ec565b604082019050919050565b60006126b1602c83612ced565b91506126bc8261343b565b604082019050919050565b60006126d4602583612cfe565b91506126df8261348a565b602582019050919050565b60006126f7602f83612ced565b9150612702826134d9565b604082019050919050565b600061271a600a83612cfe565b915061272582613528565b600a82019050919050565b600061273d602883612cfe565b915061274882613551565b602882019050919050565b6000612760602183612ced565b915061276b826135a0565b604082019050919050565b6000612783601d83612cfe565b915061278e826135ef565b601d82019050919050565b60006127a6600683612cfe565b91506127b182613618565b600682019050919050565b60006127c9603183612ced565b91506127d482613641565b604082019050919050565b6127e881612e88565b82525050565b60006127fa82846123e7565b915081905092915050565b600061281182856123e7565b915061281d82846123e7565b91508190509392505050565b60006128358287612418565b915061284182866123e7565b915061284d8285612418565b915061285982846123e7565b91506128648261258c565b915081905095945050505050565b600061287d82612500565b915061288982846123e7565b915081905092915050565b600061289f8261270d565b91506128ab82866123e7565b91506128b6826126c7565b91506128c282856123e7565b91506128cd82612730565b91506128d982846123e7565b91506128e48261263b565b9150819050949350505050565b60006128fc82612776565b915061290882846123e7565b915081905092915050565b600061291e82612799565b915061292a82846123e7565b915081905092915050565b600060208201905061294a6000830184612357565b92915050565b60006080820190506129656000830187612357565b6129726020830186612357565b61297f60408301856127df565b81810360608301526129918184612375565b905095945050505050565b60006040820190506129b16000830185612357565b6129be60208301846127df565b9392505050565b60006020820190506129da6000830184612366565b92915050565b600060208201905081810360008301526129fa81846123ae565b905092915050565b60006060820190508181036000830152612a1c81866123ae565b9050612a2b60208301856127df565b612a386040830184612357565b949350505050565b60006020820190508181036000830152612a5981612497565b9050919050565b60006020820190508181036000830152612a79816124ba565b9050919050565b60006020820190508181036000830152612a99816124dd565b9050919050565b60006020820190508181036000830152612ab981612523565b9050919050565b60006020820190508181036000830152612ad981612546565b9050919050565b60006020820190508181036000830152612af981612569565b9050919050565b60006020820190508181036000830152612b19816125af565b9050919050565b60006020820190508181036000830152612b39816125d2565b9050919050565b60006020820190508181036000830152612b59816125f5565b9050919050565b60006020820190508181036000830152612b7981612618565b9050919050565b60006020820190508181036000830152612b998161265e565b9050919050565b60006020820190508181036000830152612bb981612681565b9050919050565b60006020820190508181036000830152612bd9816126a4565b9050919050565b60006020820190508181036000830152612bf9816126ea565b9050919050565b60006020820190508181036000830152612c1981612753565b9050919050565b60006020820190508181036000830152612c39816127bc565b9050919050565b6000602082019050612c5560008301846127df565b92915050565b6000612c65612c76565b9050612c718282612f06565b919050565b6000604051905090565b600067ffffffffffffffff821115612c9b57612c9a61303e565b5b612ca48261306d565b9050602081019050919050565b60008190508160005260206000209050919050565b600081519050919050565b600081519050919050565b600082825260208201905092915050565b600082825260208201905092915050565b600081905092915050565b6000612d1482612e88565b9150612d1f83612e88565b9250827fffffffffffffffffffffffffffffffffffffffffffffffffffffffffffffffff03821115612d5457612d53612fb1565b5b828201905092915050565b6000612d6a82612e88565b9150612d7583612e88565b925082612d8557612d84612fe0565b5b828204905092915050565b6000612d9b82612e88565b9150612da683612e88565b9250817fffffffffffffffffffffffffffffffffffffffffffffffffffffffffffffffff0483118215151615612ddf57612dde612fb1565b5b828202905092915050565b6000612df582612e88565b9150612e0083612e88565b925082821015612e1357612e12612fb1565b5b828203905092915050565b6000612e2982612e68565b9050919050565b60008115159050919050565b60007fffffffff0000000000000000000000000000000000000000000000000000000082169050919050565b600073ffffffffffffffffffffffffffffffffffffffff82169050919050565b6000819050919050565b82818337600083830152505050565b60005b83811015612ebf578082015181840152602081019050612ea4565b83811115612ece576000848401525b50505050565b60006002820490506001821680612eec57607f821691505b60208210811415612f0057612eff61300f565b5b50919050565b612f0f8261306d565b810181811067ffffffffffffffff82111715612f2e57612f2d61303e565b5b80604052505050565b6000612f4282612e88565b91507fffffffffffffffffffffffffffffffffffffffffffffffffffffffffffffffff821415612f7557612f74612fb1565b5b600182019050919050565b6000612f8b82612e88565b9150612f9683612e88565b925082612fa657612fa5612fe0565b5b828206905092915050565b7f4e487b7100000000000000000000000000000000000000000000000000000000600052601160045260246000fd5b7f4e487b7100000000000000000000000000000000000000000000000000000000600052601260045260246000fd5b7f4e487b7100000000000000000000000000000000000000000000000000000000600052602260045260246000fd5b7f4e487b7100000000000000000000000000000000000000000000000000000000600052604160045260246000fd5b6000601f19601f8301169050919050565b7f4552433732313a207472616e7366657220746f206e6f6e20455243373231526560008201527f63656976657220696d706c656d656e7465720000000000000000000000000000602082015250565b7f4552433732313a207472616e736665722066726f6d20696e636f72726563742060008201527f6f776e6572000000000000000000000000000000000000000000000000000000602082015250565b7f4552433732313a20746f6b656e20616c7265616479206d696e74656400000000600082015250565b7f4e414d4500000000000000000000000000000000000000000000000000000000600082015250565b7f4552433732313a207472616e7366657220746f20746865207a65726f2061646460008201527f7265737300000000000000000000000000000000000000000000000000000000602082015250565b7f4552433732313a20617070726f766520746f2063616c6c657200000000000000600082015250565b7f4552433732313a206f70657261746f7220717565727920666f72206e6f6e657860008201527f697374656e7420746f6b656e0000000000000000000000000000000000000000602082015250565b7f3c2f746578743e3c2f7376673e00000000000000000000000000000000000000600082015250565b7f4552433732313a20617070726f76652063616c6c6572206973206e6f74206f7760008201527f6e6572206e6f7220617070726f76656420666f7220616c6c0000000000000000602082015250565b7f4552433732313a2062616c616e636520717565727920666f7220746865207a6560008201527f726f206164647265737300000000000000000000000000000000000000000000602082015250565b7f4552433732313a206f776e657220717565727920666f72206e6f6e657869737460008201527f656e7420746f6b656e0000000000000000000000000000000000000000000000602082015250565b7f45524337323155524953746f726167653a2055524920736574206f66206e6f6e60008201527f6578697374656e7420746f6b656e000000000000000000000000000000000000602082015250565b7f227d000000000000000000000000000000000000000000000000000000000000600082015250565b7f4552433732313a206d696e7420746f20746865207a65726f2061646472657373600082015250565b7f45524337323155524953746f726167653a2055524920717565727920666f722060008201527f6e6f6e6578697374656e7420746f6b656e000000000000000000000000000000602082015250565b7f4552433732313a20617070726f76656420717565727920666f72206e6f6e657860008201527f697374656e7420746f6b656e0000000000000000000000000000000000000000602082015250565b7f222c20226465736372697074696f6e223a20224120446f706520476f6174206e60008201527f616d656420000000000000000000000000000000000000000000000000000000602082015250565b7f4552433732314d657461646174613a2055524920717565727920666f72206e6f60008201527f6e6578697374656e7420746f6b656e0000000000000000000000000000000000602082015250565b7f7b226e616d65223a202200000000000000000000000000000000000000000000600082015250565b7f2e222c2022696d616765223a2022646174613a696d6167652f7376672b786d6c60008201527f3b6261736536342c000000000000000000000000000000000000000000000000602082015250565b7f4552433732313a20617070726f76616c20746f2063757272656e74206f776e6560008201527f7200000000000000000000000000000000000000000000000000000000000000602082015250565b7f646174613a6170706c69636174696f6e2f6a736f6e3b6261736536342c000000600082015250565b7f434f4c4f55520000000000000000000000000000000000000000000000000000600082015250565b7f4552433732313a207472616e736665722063616c6c6572206973206e6f74206f60008201527f776e6572206e6f7220617070726f766564000000000000000000000000000000602082015250565b61369981612e1e565b81146136a457600080fd5b50565b6136b081612e30565b81146136bb57600080fd5b50565b6136c781612e3c565b81146136d257600080fd5b50565b6136de81612e88565b81146136e957600080fd5b5056fe416e204e465420772f20494420257320686173206265656e206d696e74656420746f2025734142434445464748494a4b4c4d4e4f505152535455565758595a6162636465666768696a6b6c6d6e6f707172737475767778797a303132333435363738392b2fa2646970667358221220656895b0e31f7c36bbe7fc53791597e9fab2b9b09a73aa7a60739aaa5be9115864736f6c634300080100333c73766720786d6c6e733d27687474703a2f2f7777772e77332e6f72672f323030302f73766727207072657365727665417370656374526174696f3d27784d696e594d696e206d656574272076696577426f783d273020302033353020333530273e3c7374796c653e2e62617365207b2066696c6c3a2077686974653b20666f6e742d66616d696c793a2073657269663b20666f6e742d73697a653a20323470783b207d3c2f7374796c653e3c726563742077696474683d273130302527206865696768743d2731303025272066696c6c3d2727202f3e3c7465787420783d273530252720793d273530252720636c6173733d27626173652720646f6d696e616e742d626173656c696e653d276d6964646c652720746578742d616e63686f723d276d6964646c65273e446f7065476f617454686973206973206d7920446f706520476f6174204e465420636f6e74726163742e20576f616821",
  "linkReferences": {},
  "deployedLinkReferences": {}
}